{"abi":[{"type":"constructor","inputs":[{"name":"_creator","type":"address","internalType":"address"},{"name":"_factory","type":"address","internalType":"address"},{"name":"_goal","type":"uint256","internalType":"uint256"},{"name":"_deadline","type":"uint64","internalType":"uint64"},{"name":"_metadataURI","type":"string","internalType":"string"}],"stateMutability":"nonpayable"},{"type":"fallback","stateMutability":"payable"},{"type":"receive","stateMutability":"payable"},{"type":"function","name":"cancel","inputs":[],"outputs":[],"stateMutability":"nonpayable"},{"type":"function","name":"deadline","inputs":[],"outputs":[{"name":"","type":"uint64","internalType":"uint64"}],"stateMutability":"view"},{"type":"function","name":"factory","inputs":[],"outputs":[{"name":"","type":"address","internalType":"address"}],"stateMutability":"view"},{"type":"function","name":"finalize","inputs":[],"outputs":[],"stateMutability":"nonpayable"},{"type":"function","name":"getSummary","inputs":[],"outputs":[{"name":"_creator","type":"address","internalType":"address"},{"name":"_goal","type":"uint256","internalType":"uint256"},{"name":"_deadline","type":"uint64","internalType":"uint64"},{"name":"_status","type":"uint8","internalType":"enum Campaign.Status"},{"name":"_totalPledged","type":"uint256","internalType":"uint256"}],"stateMutability":"view"},{"type":"function","name":"goal","inputs":[],"outputs":[{"name":"","type":"uint256","internalType":"uint256"}],"stateMutability":"view"},{"type":"function","name":"metadataURI","inputs":[],"outputs":[{"name":"","type":"string","internalType":"string"}],"stateMutability":"view"},{"type":"function","name":"pledge","inputs":[],"outputs":[],"stateMutability":"payable"},{"type":"function","name":"pledges","inputs":[{"name":"","type":"address","internalType":"address"}],"outputs":[{"name":"","type":"uint256","internalType":"uint256"}],"stateMutability":"view"},{"type":"function","name":"refund","inputs":[],"outputs":[],"stateMutability":"nonpayable"},{"type":"function","name":"status","inputs":[],"outputs":[{"name":"","type":"uint8","internalType":"enum Campaign.Status"}],"stateMutability":"view"},{"type":"function","name":"totalPledged","inputs":[],"outputs":[{"name":"","type":"uint256","internalType":"uint256"}],"stateMutability":"view"},{"type":"function","name":"unpledge","inputs":[{"name":"_amount","type":"uint256","internalType":"uint256"}],"outputs":[],"stateMutability":"nonpayable"},{"type":"event","name":"Cancelled","inputs":[],"anonymous":false},{"type":"event","name":"Finalized","inputs":[{"name":"success","type":"bool","indexed":false,"internalType":"bool"}],"anonymous":false},{"type":"event","name":"Pledged","inputs":[{"name":"backer","type":"address","indexed":true,"internalType":"address"},{"name":"amount","type":"uint256","indexed":false,"internalType":"uint256"}],"anonymous":false},{"type":"event","name":"Refunded","inputs":[{"name":"backer","type":"address","indexed":true,"internalType":"address"},{"name":"amount","type":"uint256","indexed":false,"internalType":"uint256"}],"anonymous":false},{"type":"event","name":"Unpledged","inputs":[{"name":"backer","type":"address","indexed":true,"internalType":"address"},{"name":"amount","type":"uint256","indexed":false,"internalType":"uint256"}],"anonymous":false},{"type":"error","name":"ReentrancyGuardReentrantCall","inputs":[]}],"bytecode":{"object":"0x60a0604052346103e5576110eb80380380610019816103e9565b92833981019060a0818303126103e5576100328161040e565b61003e6020830161040e565b604083015160608401516001600160401b03811694919391908590036103e5576080810151906001600160401b0382116103e5570185601f820112156103e5578051906001600160401b038211610296576100a2601f8301601f19166020016103e9565b96828852602083830101116103e557815f926020809301838a015e8701015260015f556001600160a01b031680156103a05782156103685742841115610334578451156102ef576001600160a01b038216156102aa57600180546001600160a01b031916919091179055608052600355600480546001600160481b0319169190911790555f60055580516001600160401b03811161029657600254600181811c9116801561028c575b602082101461027857601f8111610215575b50602091601f82116001146101b5579181925f926101aa575b50508160011b915f199060031b1c1916176002555b604051610cc89081610423823960805181818161037901526106400152f35b015190505f80610176565b601f1982169260025f52805f20915f5b8581106101fd575083600195106101e5575b505050811b0160025561018b565b01515f1960f88460031b161c191690555f80806101d7565b919260206001819286850151815501940192016101c5565b60025f527f405787fa12a823e0f2b7631cc41b3ba8828b3321ca811111fa75cd3aa3bb5ace601f830160051c8101916020841061026e575b601f0160051c01905b818110610263575061015d565b5f8155600101610256565b909150819061024d565b634e487b7160e01b5f52602260045260245ffd5b90607f169061014b565b634e487b7160e01b5f52604160045260245ffd5b60405162461bcd60e51b815260206004820152601360248201527f466163746f7279206973207265717569726564000000000000000000000000006044820152606490fd5b60405162461bcd60e51b815260206004820152601460248201527f494e56414c49445f4d455441444154415f5552490000000000000000000000006044820152606490fd5b60405162461bcd60e51b815260206004820152600c60248201526b4241445f444541444c494e4560a01b6044820152606490fd5b60405162461bcd60e51b815260206004820152601060248201526f11dbd85b081a5cc81c995c5d5a5c995960821b6044820152606490fd5b60405162461bcd60e51b815260206004820152601360248201527f43726561746f72206973207265717569726564000000000000000000000000006044820152606490fd5b5f80fd5b6040519190601f01601f191682016001600160401b0381118382101761029657604052565b51906001600160a01b03821682036103e55756fe608080604052600436101561001a575b5036610c4257610c42565b5f3560e01c90816303ee438c146109d057508063200d2ed2146109a657806329dcb0cf1461097f578063343576f51461094357806340193883146109265780634051ddac146108cb5780634bb278f3146105b857806355468ba41461059b578063590e1ae31461047f57806388ffe867146103a8578063c45a015514610364578063c7258ba6146102115763ea8a1af0146100b5575f61000f565b3461020d575f36600319011261020d576001546001600160a01b031633036101bc5760ff60045460401c1660048110156101a85761016d57600554610132576803000000000000000060ff60401b1960045416176004557f63b958841f79ab97cb5456da181454b9932c0e15a3b17f1cbd27e2a8bc6104375f80a1005b60405162461bcd60e51b815260206004820152601360248201527243414d504149474e5f4841535f504c4544474560681b6044820152606490fd5b60405162461bcd60e51b815260206004820152601360248201527243414d504149474e5f4e4f545f41435449564560681b6044820152606490fd5b634e487b7160e01b5f52602160045260245ffd5b60405162461bcd60e51b815260206004820152602360248201527f4f6e6c792063726561746f722063616e2063616c6c20746869732066756e637460448201526234b7b760e91b6064820152608490fd5b5f80fd5b3461020d57602036600319011261020d5760043560045460ff8160401c1660048110156101a8576102579161024f67ffffffffffffffff9215610bb1565b164210610bf6565b61025f610c74565b61026a811515610b79565b335f52600660205260405f2054811161032c575f80808361028e8295600554610b6c565b60055533825260066020526102a7816040842054610b6c565b338352600660205260408320556040518181527fefc8127cf8578e3bc03f4f8b964347cea522102e6484bb77bc4917b794817a6060203392a2335af16102eb610b2d565b50156102f75760015f55005b60405162461bcd60e51b815260206004820152600d60248201526c15539413115111d157d1905253609a1b6044820152606490fd5b60405162461bcd60e51b815260206004820152601060248201526f414d4f554e545f544f4f5f4c4152474560801b6044820152606490fd5b3461020d575f36600319011261020d576040517f00000000000000000000000000000000000000000000000000000000000000006001600160a01b03168152602090f35b5f36600319011261020d5760045460ff8160401c1660048110156101a8576103dd9161024f67ffffffffffffffff9215610bb1565b6103e5610c74565b341561044557335f52600660205260405f20610402348254610c35565b905561041034600554610c35565b6005556040513481527f2726ce6e3b7987cbbb10c5a55b44725526c540fbba590cfc20afab691fa45edf60203392a260015f55005b60405162461bcd60e51b8152602060048201526012602482015271105b5bdd5b9d081a5cc81c995c5d5a5c995960721b6044820152606490fd5b3461020d575f36600319011261020d57610497610c74565b60ff60045460401c1660048110156101a85760020361056057335f52600660205260405f20546104c8811515610b79565b6104d481600554610b6c565b600555335f5260066020525f60408120555f80808084335af16104f5610b2d565b501561052d576040519081527fd7dee2702d63ad89917b6a4da9981c90c4d24f8c2bdfd64c604ecae57d8d065160203392a260015f55005b60405162461bcd60e51b815260206004820152600b60248201526a14915195539117d190525360aa1b6044820152606490fd5b60405162461bcd60e51b815260206004820152601360248201527210d05354105251d397d393d517d19052531151606a1b6044820152606490fd5b3461020d575f36600319011261020d576020600554604051908152f35b3461020d575f36600319011261020d5767ffffffffffffffff60045416421061088f576105e3610c74565b60055460035411610848576801000000000000000060ff60401b1960045416176004557f41493253ae80c9f89e25283c36f67849365d0515134ce43de1314223cb6f7342602060405160018152a16040516324a9d85360e01b81527f00000000000000000000000000000000000000000000000000000000000000006001600160a01b0316602082600481845afa9182156107fd575f92610808575b506020600491604051928380926361d027b360e01b82525afa9081156107fd575f916107bb575b50479161ffff168061078c57505f905b81610722575b50506001545f918291829182916001600160a01b03165af16106dc610b2d565b50156106e9575b60015f55005b60405162461bcd60e51b815260206004820152601160248201527010d491505513d497d611915497d1905253607a1b6044820152606490fd5b5f808084819460018060a01b03165af161073a610b2d565b5015610757575f8061074f8194938294610b6c565b9350506106bc565b60405162461bcd60e51b815260206004820152600d60248201526c11915157d611915497d1905253609a1b6044820152606490fd5b8083029083820414831517156107a7576127109004906106b6565b634e487b7160e01b5f52601160045260245ffd5b90506020813d6020116107f5575b816107d660209383610aea565b8101031261020d57516001600160a01b038116810361020d57826106a6565b3d91506107c9565b6040513d5f823e3d90fd5b9091506020813d602011610840575b8161082460209383610aea565b8101031261020d575161ffff8116810361020d5790602061067f565b3d9150610817565b6802000000000000000060ff60401b1960045416176004557f41493253ae80c9f89e25283c36f67849365d0515134ce43de1314223cb6f734260206040515f8152a16106e3565b60405162461bcd60e51b815260206004820152601460248201527321b0b6b830b4b3b71034b9903737ba1037bb32b960611b6044820152606490fd5b3461020d575f36600319011261020d5760a0600180821b036001541660035461091f60045460055492604051948552602085015267ffffffffffffffff8116604085015260ff606085019160401c16610b20565b6080820152f35b3461020d575f36600319011261020d576020600354604051908152f35b3461020d57602036600319011261020d576004356001600160a01b0381169081900361020d575f526006602052602060405f2054604051908152f35b3461020d575f36600319011261020d57602067ffffffffffffffff60045416604051908152f35b3461020d575f36600319011261020d57602060ff60045460401c166109ce6040518092610b20565bf35b3461020d575f36600319011261020d575f90600254918260011c60018416938415610ae0575b602082108514610acc578184526020840194908115610ab15750600114610a53575b5090610a28816040930382610aea565b8151928391602083525180918160208501528484015e5f828201840152601f01601f19168101030190f35b91905060025f527f405787fa12a823e0f2b7631cc41b3ba8828b3321ca811111fa75cd3aa3bb5ace915f905b808210610a9757509091508101602001610a28610a18565b919260018160209254838588010152019101909291610a7f565b60ff1916855250151560051b82016020019050610a28610a18565b634e487b7160e01b5f52602260045260245ffd5b90607f16906109f6565b90601f8019910116810190811067ffffffffffffffff821117610b0c57604052565b634e487b7160e01b5f52604160045260245ffd5b9060048210156101a85752565b3d15610b67573d9067ffffffffffffffff8211610b0c5760405191610b5c601f8201601f191660200184610aea565b82523d5f602084013e565b606090565b919082039182116107a757565b15610b8057565b60405162461bcd60e51b81526020600482015260096024820152684e4f5f504c4544474560b81b6044820152606490fd5b15610bb857565b60405162461bcd60e51b815260206004820152601660248201527543616d706169676e206973206e6f742061637469766560501b6044820152606490fd5b15610bfd57565b60405162461bcd60e51b815260206004820152601060248201526f21b0b6b830b4b3b71034b99037bb32b960811b6044820152606490fd5b919082018092116107a757565b60405162461bcd60e51b815260206004820152600a6024820152695553455f504c4544474560b01b6044820152606490fd5b60025f5414610c835760025f55565b633ee5aeb560e01b5f5260045ffdfea2646970667358221220e82ca9ff5d9fc7bffe033757e1e7064c350f05162920c82d360ebce0177016ea64736f6c634300081e0033","linkReferences":{}},"methodIdentifiers":{"cancel()":"ea8a1af0","deadline()":"29dcb0cf","factory()":"c45a0155","finalize()":"4bb278f3","getSummary()":"4051ddac","goal()":"40193883","metadataURI()":"03ee438c","pledge()":"88ffe867","pledges(address)":"343576f5","refund()":"590e1ae3","status()":"200d2ed2","totalPledged()":"55468ba4","unpledge(uint256)":"c7258ba6"},"id":19}