{"abi":[{"type":"constructor","inputs":[{"name":"_treasury","type":"address","internalType":"address"},{"name":"_feeBps","type":"uint16","internalType":"uint16"}],"stateMutability":"nonpayable"},{"type":"function","name":"bannedCreators","inputs":[{"name":"","type":"address","internalType":"address"}],"outputs":[{"name":"","type":"bool","internalType":"bool"}],"stateMutability":"view"},{"type":"function","name":"campaigns","inputs":[{"name":"","type":"uint256","internalType":"uint256"}],"outputs":[{"name":"","type":"address","internalType":"address"}],"stateMutability":"view"},{"type":"function","name":"campaignsLength","inputs":[],"outputs":[{"name":"","type":"uint256","internalType":"uint256"}],"stateMutability":"view"},{"type":"function","name":"createCampaign","inputs":[{"name":"goal","type":"uint256","internalType":"uint256"},{"name":"deadline","type":"uint64","internalType":"uint64"},{"name":"metadataURI","type":"string","internalType":"string"}],"outputs":[{"name":"campaign","type":"address","internalType":"address"}],"stateMutability":"nonpayable"},{"type":"function","name":"feeBps","inputs":[],"outputs":[{"name":"","type":"uint16","internalType":"uint16"}],"stateMutability":"view"},{"type":"function","name":"getUserCampaigns","inputs":[{"name":"user","type":"address","internalType":"address"}],"outputs":[{"name":"","type":"address[]","internalType":"address[]"}],"stateMutability":"view"},{"type":"function","name":"owner","inputs":[],"outputs":[{"name":"","type":"address","internalType":"address"}],"stateMutability":"view"},{"type":"function","name":"paused","inputs":[],"outputs":[{"name":"","type":"bool","internalType":"bool"}],"stateMutability":"view"},{"type":"function","name":"renounceOwnership","inputs":[],"outputs":[],"stateMutability":"nonpayable"},{"type":"function","name":"setBanned","inputs":[{"name":"creator","type":"address","internalType":"address"},{"name":"banned","type":"bool","internalType":"bool"}],"outputs":[],"stateMutability":"nonpayable"},{"type":"function","name":"setFeeBps","inputs":[{"name":"_bps","type":"uint16","internalType":"uint16"}],"outputs":[],"stateMutability":"nonpayable"},{"type":"function","name":"setPaused","inputs":[{"name":"_p","type":"bool","internalType":"bool"}],"outputs":[],"stateMutability":"nonpayable"},{"type":"function","name":"setTreasury","inputs":[{"name":"_treasury","type":"address","internalType":"address"}],"outputs":[],"stateMutability":"nonpayable"},{"type":"function","name":"transferOwnership","inputs":[{"name":"newOwner","type":"address","internalType":"address"}],"outputs":[],"stateMutability":"nonpayable"},{"type":"function","name":"treasury","inputs":[],"outputs":[{"name":"","type":"address","internalType":"address"}],"stateMutability":"view"},{"type":"function","name":"userCampaigns","inputs":[{"name":"","type":"address","internalType":"address"},{"name":"","type":"uint256","internalType":"uint256"}],"outputs":[{"name":"","type":"address","internalType":"address"}],"stateMutability":"view"},{"type":"event","name":"CampaignCreated","inputs":[{"name":"campaign","type":"address","indexed":false,"internalType":"address"},{"name":"creator","type":"address","indexed":true,"internalType":"address"},{"name":"id","type":"uint256","indexed":true,"internalType":"uint256"}],"anonymous":false},{"type":"event","name":"CreatorBanned","inputs":[{"name":"creator","type":"address","indexed":true,"internalType":"address"},{"name":"banned","type":"bool","indexed":false,"internalType":"bool"}],"anonymous":false},{"type":"event","name":"FeeBpsUpdated","inputs":[{"name":"oldFee","type":"uint16","indexed":false,"internalType":"uint16"},{"name":"newFee","type":"uint16","indexed":false,"internalType":"uint16"}],"anonymous":false},{"type":"event","name":"OwnershipTransferred","inputs":[{"name":"previousOwner","type":"address","indexed":true,"internalType":"address"},{"name":"newOwner","type":"address","indexed":true,"internalType":"address"}],"anonymous":false},{"type":"event","name":"Paused","inputs":[{"name":"paused","type":"bool","indexed":false,"internalType":"bool"}],"anonymous":false},{"type":"event","name":"TreasuryUpdated","inputs":[{"name":"oldTreasury","type":"address","indexed":false,"internalType":"address"},{"name":"newTreasury","type":"address","indexed":false,"internalType":"address"}],"anonymous":false},{"type":"error","name":"OwnableInvalidOwner","inputs":[{"name":"owner","type":"address","internalType":"address"}]},{"type":"error","name":"OwnableUnauthorizedAccount","inputs":[{"name":"account","type":"address","internalType":"address"}]}],"bytecode":{"object":"0x60803461016857601f61202238819003918201601f19168301916001600160401b0383118484101761016c5780849260409485528339810103126101685780516001600160a01b038116919082900361016857602001519061ffff8216808303610168573315610155575f8054336001600160a01b03198216811783556040519290916001600160a01b0316907f8be0079c531659141344cd1fd0a4f28419497f9722a3daafe3b4186f6b6457e09080a382156101205750612710106100ec576001549161ffff60a01b9060a01b169160018060b01b0319161717600155604051611ea190816101818239f35b60405162461bcd60e51b815260206004820152600c60248201526b08c8a8abea89e9ebe90928e960a31b6044820152606490fd5b62461bcd60e51b815260206004820152601060248201526f494e56414c49445f545245415355525960801b6044820152606490fd5b631e4fbdf760e01b5f525f60045260245ffd5b5f80fd5b634e487b7160e01b5f52604160045260245ffdfe6080806040526004361015610012575f80fd5b5f3560e01c9081630133ea5c146109a057508063023b1fc9146108e3578063141961bc1461086b57806316c38b3c146107ff57806319ac74bd1461079d57806324a9d853146107795780635706ae93146104365780635c975abb146104115780635f3179c3146103f457806361d027b3146103cc578063715018a61461037557806388c9bcce146102f85780638da5cb5b146102d1578063a1e5084c1461020b578063f0f44260146101555763f2fde38b146100cc575f80fd5b34610151576020366003190112610151576100e56109d9565b6100ed610a26565b6001600160a01b0316801561013e575f80546001600160a01b03198116831782556001600160a01b0316907f8be0079c531659141344cd1fd0a4f28419497f9722a3daafe3b4186f6b6457e09080a3005b631e4fbdf760e01b5f525f60045260245ffd5b5f80fd5b346101515760203660031901126101515761016e6109d9565b610176610a26565b6001600160a01b031680156101d357600154604080516001600160a01b0383168152602081018490527f4ab5be82436d353e61ca18726e984e561f5c1cc7c6d38b29d2553c790434705a9190a16001600160a01b03191617600155005b60405162461bcd60e51b815260206004820152601060248201526f494e56414c49445f545245415355525960801b6044820152606490fd5b34610151576020366003190112610151576001600160a01b0361022c6109d9565b165f52600460205260405f20604051806020835491828152019081935f5260205f20905f5b8181106102b25750505081610267910382610a04565b604051918291602083019060208452518091526040830191905f5b818110610290575050500390f35b82516001600160a01b0316845285945060209384019390920191600101610282565b82546001600160a01b0316845260209093019260019283019201610251565b34610151575f366003190112610151575f546040516001600160a01b039091168152602090f35b34610151576040366003190112610151576103116109d9565b602435908115158092036101515760207f1284e03566d6e822d93d81be615cab25664ae5881187917447954596cfd812c89161034b610a26565b60018060a01b031692835f526003825260405f2060ff1981541660ff8316179055604051908152a2005b34610151575f3660031901126101515761038d610a26565b5f80546001600160a01b0319811682556001600160a01b03167f8be0079c531659141344cd1fd0a4f28419497f9722a3daafe3b4186f6b6457e08280a3005b34610151575f366003190112610151576001546040516001600160a01b039091168152602090f35b34610151575f366003190112610151576020600254604051908152f35b34610151575f36600319011261015157602060ff60015460b01c166040519015158152f35b34610151576060366003190112610151576004356024359067ffffffffffffffff8216809203610151576044359167ffffffffffffffff831161015157366023840112156101515782600401359067ffffffffffffffff821161064e57604051916104ab601f8201601f191660200184610a04565b8083526020830194366024838301011161015157815f9260246020930188378401015260ff60015460b01c1661074b57335f52600360205260ff60405f2054166107155782156106e157428111156106a95781511561066d576040519361141f928386019286841067ffffffffffffffff85111761064e5760c0958795610a4d87393385523060208601526040850152606084015260a060808401525180918160a08501528584015e5f848284010152601f8019910116010301905ff080156106625760018060a01b0316600254600160401b81101561064e57806001610597920160025560026109ef565b81549060031b9083821b9160018060a01b03901b1916179055335f52600460205260405f208054600160401b81101561064e576105d9916001820181556109ef565b81546001600160a01b0360039290921b91821b19169083901b1790556002545f1981019190821161063a576020916040518281527fc5099b671a0e7e75b6a5d731232dc609f91567fd0a1fb5921f49ee14d60a13b9843392a3604051908152f35b634e487b7160e01b5f52601160045260245ffd5b634e487b7160e01b5f52604160045260245ffd5b6040513d5f823e3d90fd5b60405162461bcd60e51b8152602060048201526014602482015273494e56414c49445f4d455441444154415f55524960601b6044820152606490fd5b60405162461bcd60e51b815260206004820152601060248201526f494e56414c49445f444541444c494e4560801b6044820152606490fd5b60405162461bcd60e51b815260206004820152600c60248201526b1253959053125117d1d3d05360a21b6044820152606490fd5b60405162461bcd60e51b815260206004820152600e60248201526d10d491505513d497d0905393915160921b6044820152606490fd5b60405162461bcd60e51b815260206004820152600660248201526514105554d15160d21b6044820152606490fd5b34610151575f36600319011261015157602061ffff60015460a01c16604051908152f35b34610151576040366003190112610151576107b66109d9565b6001600160a01b03165f90815260046020526040902080546024359190821015610151576020916107e6916109ef565b905460405160039290921b1c6001600160a01b03168152f35b34610151576020366003190112610151576004358015158091036101515760207f0e2fb031ee032dc02d8011dc50b816eb450cf856abd8261680dac74f72165bd291610849610a26565b6001805460ff60b01b191660b083901b60ff60b01b16179055604051908152a1005b3461015157602036600319011261015157600435600254811015610151576002548110156108cf5760025f527f405787fa12a823e0f2b7631cc41b3ba8828b3321ca811111fa75cd3aa3bb5ace01546040516001600160a01b039091168152602090f35b634e487b7160e01b5f52603260045260245ffd5b346101515760203660031901126101515760043561ffff8116908181036101515761090c610a26565b612710821161096c577f8d10f5697a370f640ed5d474159aba3cc86e9bc260a5e9d2db875ad992cb1a1f60406001549381519061ffff8660a01c1682526020820152a161ffff60a01b1990911660a09190911b61ffff60a01b1617600155005b60405162461bcd60e51b815260206004820152600c60248201526b08c8a8abea89e9ebe90928e960a31b6044820152606490fd5b34610151576020366003190112610151576020906001600160a01b036109c46109d9565b165f526003825260ff60405f20541615158152f35b600435906001600160a01b038216820361015157565b80548210156108cf575f5260205f2001905f90565b90601f8019910116810190811067ffffffffffffffff82111761064e57604052565b5f546001600160a01b03163303610a3957565b63118cdaa760e01b5f523360045260245ffdfe60c0604052346104065761141f803803806100198161040a565b92833981019060a081830312610406576100328161042f565b61003e6020830161042f565b604083015160608401516001600160401b0381169491939190859003610406576080810151906001600160401b038211610406570185601f82011215610406578051906001600160401b0382116102b7576100a2601f8301601f191660200161040a565b968288526020838301011161040657815f926020809301838a015e8701015260015f556001600160a01b038116156103c1578215610389574284111561035557845115610310576001600160a01b038216156102cb5760805260a052600255600380546001600160481b0319169190911790555f60045580516001600160401b0381116102b757600154600181811c911680156102ad575b602082101461029957601f8111610236575b50602091601f82116001146101d6579181925f926101cb575b50508160011b915f199060031b1c1916176001555b604051610fdb9081610444823960805181818160d2015281816107dc0152818161095b0152610deb015260a05181818161029a01528181610438015281816104b10152818161083b0152610d630152f35b015190505f80610165565b601f1982169260015f52805f20915f5b85811061021e57508360019510610206575b505050811b0160015561017a565b01515f1960f88460031b161c191690555f80806101f8565b919260206001819286850151815501940192016101e6565b60015f527fb10e2d527612073b26eecdfd717e6a320cf44b4afac2b0732d9fcbe2b7fa0cf6601f830160051c8101916020841061028f575b601f0160051c01905b818110610284575061014c565b5f8155600101610277565b909150819061026e565b634e487b7160e01b5f52602260045260245ffd5b90607f169061013a565b634e487b7160e01b5f52604160045260245ffd5b60405162461bcd60e51b815260206004820152601360248201527f466163746f7279206973207265717569726564000000000000000000000000006044820152606490fd5b60405162461bcd60e51b815260206004820152601460248201527f494e56414c49445f4d455441444154415f5552490000000000000000000000006044820152606490fd5b60405162461bcd60e51b815260206004820152600c60248201526b4241445f444541444c494e4560a01b6044820152606490fd5b60405162461bcd60e51b815260206004820152601060248201526f11dbd85b081a5cc81c995c5d5a5c995960821b6044820152606490fd5b60405162461bcd60e51b815260206004820152601360248201527f43726561746f72206973207265717569726564000000000000000000000000006044820152606490fd5b5f80fd5b6040519190601f01601f191682016001600160401b038111838210176102b757604052565b51906001600160a01b03821682036104065756fe608080604052600436101561001a575b5036610c5157610c51565b5f3560e01c90816302d05d3f146109495750806303ee438c14610916578063200d2ed2146108ec57806329dcb0cf146108c5578063343576f514610889578063401938831461086c5780634051ddac146107a45780634bb278f31461072f57806355468ba414610712578063590e1ae3146105b357806388ffe86714610467578063c45a015514610423578063c7258ba61461023f5763ea8a1af0146100c0575f61000f565b3461023b575f36600319011261023b577f00000000000000000000000000000000000000000000000000000000000000006001600160a01b031633036101ea5760ff60035460401c1660048110156101d65761011c9015610b6b565b60045461019b576803000000000000000060ff60401b1960035416176003557fafa725e7f44cadb687a7043853fa1a7e7b8f0da74ce87ec546e9420f04da8c1e602060ff60035460401c166101746040518092610ac6565ba17f63b958841f79ab97cb5456da181454b9932c0e15a3b17f1cbd27e2a8bc6104375f80a1005b60405162461bcd60e51b815260206004820152601360248201527243414d504149474e5f4841535f504c4544474560681b6044820152606490fd5b634e487b7160e01b5f52602160045260245ffd5b60405162461bcd60e51b815260206004820152602360248201527f4f6e6c792063726561746f722063616e2063616c6c20746869732066756e637460448201526234b7b760e91b6064820152608490fd5b5f80fd5b3461023b57602036600319011261023b5760043560035460ff8160401c1660048110156101d6576102859161027d67ffffffffffffffff9215610b6b565b164210610bb0565b604051635c975abb60e01b81526020816004817f00000000000000000000000000000000000000000000000000000000000000006001600160a01b03165afa8015610418576102dc915f916103e9575b5015610c07565b6102e4610c83565b6102ef811515610ad3565b335f52600560205260405f205481116103b15761030e81600454610b0b565b600455335f5260056020526103278160405f2054610b0b565b335f52600560205260405f20555f80808084335af1610344610b2c565b501561037c576040519081527fefc8127cf8578e3bc03f4f8b964347cea522102e6484bb77bc4917b794817a6060203392a260015f55005b60405162461bcd60e51b815260206004820152600d60248201526c15539413115111d157d1905253609a1b6044820152606490fd5b60405162461bcd60e51b815260206004820152601060248201526f414d4f554e545f544f4f5f4c4152474560801b6044820152606490fd5b61040b915060203d602011610411575b610403818361098a565b810190610bef565b836102d5565b503d6103f9565b6040513d5f823e3d90fd5b3461023b575f36600319011261023b576040517f00000000000000000000000000000000000000000000000000000000000000006001600160a01b03168152602090f35b5f36600319011261023b5760035460ff8160401c1660048110156101d65761049c9161027d67ffffffffffffffff9215610b6b565b604051635c975abb60e01b81526020816004817f00000000000000000000000000000000000000000000000000000000000000006001600160a01b03165afa8015610418576104f2915f91610594575015610c07565b6104fa610c83565b341561055a57335f52600560205260405f20610517348254610c44565b905561052534600454610c44565b6004556040513481527f2726ce6e3b7987cbbb10c5a55b44725526c540fbba590cfc20afab691fa45edf60203392a260015f55005b60405162461bcd60e51b8152602060048201526012602482015271105b5bdd5b9d081a5cc81c995c5d5a5c995960721b6044820152606490fd5b6105ad915060203d60201161041157610403818361098a565b826102d5565b3461023b575f36600319011261023b576105cb610c83565b60035460ff8160401c1660048110156101d6571590816106fd575b506106f0575b60ff60035460401c1660048110156101d6576002036106b557335f52600560205260405f205461061d811515610ad3565b61062981600454610b0b565b600455335f5260056020525f60408120555f80808084335af161064a610b2c565b5015610682576040519081527fd7dee2702d63ad89917b6a4da9981c90c4d24f8c2bdfd64c604ecae57d8d065160203392a260015f55005b60405162461bcd60e51b815260206004820152600b60248201526a14915195539117d190525360aa1b6044820152606490fd5b60405162461bcd60e51b815260206004820152601360248201527210d05354105251d397d393d517d19052531151606a1b6044820152606490fd5b6106f8610ca1565b6105ec565b67ffffffffffffffff915016421015816105e6565b3461023b575f36600319011261023b576020600454604051908152f35b3461023b575f36600319011261023b5767ffffffffffffffff6003541642106107685761075a610c83565b610762610ca1565b60015f55005b60405162461bcd60e51b815260206004820152601460248201527321b0b6b830b4b3b71034b9903737ba1037bb32b960611b6044820152606490fd5b3461023b575f36600319011261023b57600254600354906108396004546107c96109c0565b9061082360405195869560018060a01b037f0000000000000000000000000000000000000000000000000000000000000000168752602087015267ffffffffffffffff8116604087015260ff606087019160401c16610ac6565b608084015260e060a084015260e0830190610aa2565b7f00000000000000000000000000000000000000000000000000000000000000006001600160a01b031660c08301520390f35b3461023b575f36600319011261023b576020600254604051908152f35b3461023b57602036600319011261023b576004356001600160a01b0381169081900361023b575f526005602052602060405f2054604051908152f35b3461023b575f36600319011261023b57602067ffffffffffffffff60035416604051908152f35b3461023b575f36600319011261023b57602060ff60035460401c166109146040518092610ac6565bf35b3461023b575f36600319011261023b576109456109316109c0565b604051918291602083526020830190610aa2565b0390f35b3461023b575f36600319011261023b577f00000000000000000000000000000000000000000000000000000000000000006001600160a01b03168152602090f35b90601f8019910116810190811067ffffffffffffffff8211176109ac57604052565b634e487b7160e01b5f52604160045260245ffd5b604051905f6001548060011c9160018216918215610a98575b602084108314610a84578386528592908115610a655750600114610a06575b610a049250038361098a565b565b5060015f90815290917fb10e2d527612073b26eecdfd717e6a320cf44b4afac2b0732d9fcbe2b7fa0cf65b818310610a49575050906020610a04928201016109f8565b6020919350806001915483858901015201910190918492610a31565b60209250610a0494915060ff191682840152151560051b8201016109f8565b634e487b7160e01b5f52602260045260245ffd5b92607f16926109d9565b805180835260209291819084018484015e5f828201840152601f01601f1916010190565b9060048210156101d65752565b15610ada57565b60405162461bcd60e51b81526020600482015260096024820152684e4f5f504c4544474560b81b6044820152606490fd5b91908203918211610b1857565b634e487b7160e01b5f52601160045260245ffd5b3d15610b66573d9067ffffffffffffffff82116109ac5760405191610b5b601f8201601f19166020018461098a565b82523d5f602084013e565b606090565b15610b7257565b60405162461bcd60e51b815260206004820152601660248201527543616d706169676e206973206e6f742061637469766560501b6044820152606490fd5b15610bb757565b60405162461bcd60e51b815260206004820152601060248201526f21b0b6b830b4b3b71034b99037bb32b960811b6044820152606490fd5b9081602091031261023b5751801515810361023b5790565b15610c0e57565b60405162461bcd60e51b815260206004820152600e60248201526d119050d513d49657d4105554d15160921b6044820152606490fd5b91908201809211610b1857565b60405162461bcd60e51b815260206004820152600a6024820152695553455f504c4544474560b01b6044820152606490fd5b60025f5414610c925760025f55565b633ee5aeb560e01b5f5260045ffd5b60ff60035460401c1660048110156101d657610f6c5760045460025411801590610f655760015b60048110156101d65760ff60401b6003549160401b169060ff60401b1916176003557f41493253ae80c9f89e25283c36f67849365d0515134ce43de1314223cb6f73426020604051838152a17fafa725e7f44cadb687a7043853fa1a7e7b8f0da74ce87ec546e9420f04da8c1e602060ff60035460401c16610d4d6040518092610ac6565ba1610d5457565b6040516324a9d85360e01b81527f00000000000000000000000000000000000000000000000000000000000000006001600160a01b0316602082600481845afa918215610418575f92610f25575b506020600491604051928380926361d027b360e01b82525afa908115610418575f91610ee3575b50479161ffff1680610ec857505f905b81610e5e575b505f91829150819081907f00000000000000000000000000000000000000000000000000000000000000006001600160a01b03165af1610e1d610b2c565b5015610e2557565b60405162461bcd60e51b815260206004820152601160248201527010d491505513d497d611915497d1905253607a1b6044820152606490fd5b5f808084819460018060a01b03165af1610e76610b2c565b5015610e93575f80610e8b8194938294610b0b565b935050610ddf565b60405162461bcd60e51b815260206004820152600d60248201526c11915157d611915497d1905253609a1b6044820152606490fd5b808302908382041483151715610b1857612710900490610dd9565b90506020813d602011610f1d575b81610efe6020938361098a565b8101031261023b57516001600160a01b038116810361023b575f610dc9565b3d9150610ef1565b9091506020813d602011610f5d575b81610f416020938361098a565b8101031261023b575161ffff8116810361023b57906020610da2565b3d9150610f34565b6002610cc8565b60405162461bcd60e51b81526020600482015260116024820152701053149150511657d19253905312569151607a1b6044820152606490fdfea264697066735822122011fce8c07a8fc8e136c1952c432d63b56f56c8eaad34ca3d4d7a3474572dda1a64736f6c634300081e0033a26469706673582212208f9347b2294c36633cbaf492a3c9948b80267178dd3be0f221e3ef2ff336d90064736f6c634300081e0033","linkReferences":{}},"methodIdentifiers":{"bannedCreators(address)":"0133ea5c","campaigns(uint256)":"141961bc","campaignsLength()":"5f3179c3","createCampaign(uint256,uint64,string)":"5706ae93","feeBps()":"24a9d853","getUserCampaigns(address)":"a1e5084c","owner()":"8da5cb5b","paused()":"5c975abb","renounceOwnership()":"715018a6","setBanned(address,bool)":"88c9bcce","setFeeBps(uint16)":"023b1fc9","setPaused(bool)":"16c38b3c","setTreasury(address)":"f0f44260","transferOwnership(address)":"f2fde38b","treasury()":"61d027b3","userCampaigns(address,uint256)":"19ac74bd"},"id":25}