{"abi":[{"type":"constructor","inputs":[{"name":"_creator","type":"address","internalType":"address"},{"name":"_factory","type":"address","internalType":"address"},{"name":"_goal","type":"uint256","internalType":"uint256"},{"name":"_deadline","type":"uint64","internalType":"uint64"},{"name":"_metadataURI","type":"string","internalType":"string"}],"stateMutability":"nonpayable"},{"type":"fallback","stateMutability":"payable"},{"type":"receive","stateMutability":"payable"},{"type":"function","name":"cancel","inputs":[],"outputs":[],"stateMutability":"nonpayable"},{"type":"function","name":"creator","inputs":[],"outputs":[{"name":"","type":"address","internalType":"address"}],"stateMutability":"view"},{"type":"function","name":"deadline","inputs":[],"outputs":[{"name":"","type":"uint64","internalType":"uint64"}],"stateMutability":"view"},{"type":"function","name":"factory","inputs":[],"outputs":[{"name":"","type":"address","internalType":"address"}],"stateMutability":"view"},{"type":"function","name":"finalize","inputs":[],"outputs":[],"stateMutability":"nonpayable"},{"type":"function","name":"getSummary","inputs":[],"outputs":[{"name":"_creator","type":"address","internalType":"address"},{"name":"_goal","type":"uint256","internalType":"uint256"},{"name":"_deadline","type":"uint64","internalType":"uint64"},{"name":"_status","type":"uint8","internalType":"enum Campaign.Status"},{"name":"_totalPledged","type":"uint256","internalType":"uint256"},{"name":"_metadataURI","type":"string","internalType":"string"},{"name":"_factory","type":"address","internalType":"address"}],"stateMutability":"view"},{"type":"function","name":"goal","inputs":[],"outputs":[{"name":"","type":"uint256","internalType":"uint256"}],"stateMutability":"view"},{"type":"function","name":"metadataURI","inputs":[],"outputs":[{"name":"","type":"string","internalType":"string"}],"stateMutability":"view"},{"type":"function","name":"pledge","inputs":[],"outputs":[],"stateMutability":"payable"},{"type":"function","name":"pledges","inputs":[{"name":"","type":"address","internalType":"address"}],"outputs":[{"name":"","type":"uint256","internalType":"uint256"}],"stateMutability":"view"},{"type":"function","name":"refund","inputs":[],"outputs":[],"stateMutability":"nonpayable"},{"type":"function","name":"status","inputs":[],"outputs":[{"name":"","type":"uint8","internalType":"enum Campaign.Status"}],"stateMutability":"view"},{"type":"function","name":"totalPledged","inputs":[],"outputs":[{"name":"","type":"uint256","internalType":"uint256"}],"stateMutability":"view"},{"type":"function","name":"unpledge","inputs":[{"name":"_amount","type":"uint256","internalType":"uint256"}],"outputs":[],"stateMutability":"nonpayable"},{"type":"event","name":"Cancelled","inputs":[],"anonymous":false},{"type":"event","name":"Finalized","inputs":[{"name":"success","type":"bool","indexed":false,"internalType":"bool"}],"anonymous":false},{"type":"event","name":"Pledged","inputs":[{"name":"backer","type":"address","indexed":true,"internalType":"address"},{"name":"amount","type":"uint256","indexed":false,"internalType":"uint256"}],"anonymous":false},{"type":"event","name":"Refunded","inputs":[{"name":"backer","type":"address","indexed":true,"internalType":"address"},{"name":"amount","type":"uint256","indexed":false,"internalType":"uint256"}],"anonymous":false},{"type":"event","name":"StatusChanged","inputs":[{"name":"newStatus","type":"uint8","indexed":false,"internalType":"enum Campaign.Status"}],"anonymous":false},{"type":"event","name":"Unpledged","inputs":[{"name":"backer","type":"address","indexed":true,"internalType":"address"},{"name":"amount","type":"uint256","indexed":false,"internalType":"uint256"}],"anonymous":false},{"type":"error","name":"ReentrancyGuardReentrantCall","inputs":[]}],"bytecode":{"object":"0x60c060405234610414576116ba8038038061001981610418565b92833981019060a081830312610414576100328161043d565b61003e6020830161043d565b604083015160608401516001600160401b0381169491939190859003610414576080810151906001600160401b038211610414570185601f82011215610414578051906001600160401b0382116102c5576100a2601f8301601f1916602001610418565b968288526020838301011161041457815f926020809301838a015e8701015260015f556001600160a01b038116156103cf57821561039757428411156103635784511561031e576001600160a01b038216156102d95760805260a052600255600380546001600160481b0319169190911790555f60045580516001600160401b0381116102c557600154600181811c911680156102bb575b60208210146102a757601f8111610244575b50602091601f82116001146101e4579181925f926101d9575b50508160011b915f199060031b1c1916176001555b6040516112689081610452823960805181818160d20152818161083f01528181610bd901528181610d5d0152610edc015260a05181818161029a01528181610438015281816104b1015281816107b701528181610b510152610dbc0152f35b015190505f80610165565b601f1982169260015f52805f20915f5b85811061022c57508360019510610214575b505050811b0160015561017a565b01515f1960f88460031b161c191690555f8080610206565b919260206001819286850151815501940192016101f4565b60015f527fb10e2d527612073b26eecdfd717e6a320cf44b4afac2b0732d9fcbe2b7fa0cf6601f830160051c8101916020841061029d575b601f0160051c01905b818110610292575061014c565b5f8155600101610285565b909150819061027c565b634e487b7160e01b5f52602260045260245ffd5b90607f169061013a565b634e487b7160e01b5f52604160045260245ffd5b60405162461bcd60e51b815260206004820152601360248201527f466163746f7279206973207265717569726564000000000000000000000000006044820152606490fd5b60405162461bcd60e51b815260206004820152601460248201527f494e56414c49445f4d455441444154415f5552490000000000000000000000006044820152606490fd5b60405162461bcd60e51b815260206004820152600c60248201526b4241445f444541444c494e4560a01b6044820152606490fd5b60405162461bcd60e51b815260206004820152601060248201526f11dbd85b081a5cc81c995c5d5a5c995960821b6044820152606490fd5b60405162461bcd60e51b815260206004820152601360248201527f43726561746f72206973207265717569726564000000000000000000000000006044820152606490fd5b5f80fd5b6040519190601f01601f191682016001600160401b038111838210176102c557604052565b51906001600160a01b03821682036104145756fe608080604052600436101561001a575b50366111e2576111e2565b5f3560e01c90816302d05d3f14610eca5750806303ee438c14610e97578063200d2ed214610e6d57806329dcb0cf14610e46578063343576f514610e0a5780634019388314610ded5780634051ddac14610d255780634bb278f314610a7a57806355468ba414610a5d578063590e1ae3146105b357806388ffe86714610467578063c45a015514610423578063c7258ba61461023f5763ea8a1af0146100c0575f61000f565b3461023b575f36600319011261023b577f00000000000000000000000000000000000000000000000000000000000000006001600160a01b031633036101ea5760ff60035460401c1660048110156101d65761011c90156110fc565b60045461019b576803000000000000000060ff60401b1960035416176003557fafa725e7f44cadb687a7043853fa1a7e7b8f0da74ce87ec546e9420f04da8c1e602060ff60035460401c166101746040518092611047565ba17f63b958841f79ab97cb5456da181454b9932c0e15a3b17f1cbd27e2a8bc6104375f80a1005b60405162461bcd60e51b815260206004820152601360248201527243414d504149474e5f4841535f504c4544474560681b6044820152606490fd5b634e487b7160e01b5f52602160045260245ffd5b60405162461bcd60e51b815260206004820152602360248201527f4f6e6c792063726561746f722063616e2063616c6c20746869732066756e637460448201526234b7b760e91b6064820152608490fd5b5f80fd5b3461023b57602036600319011261023b5760043560035460ff8160401c1660048110156101d6576102859161027d67ffffffffffffffff92156110fc565b164210611141565b604051635c975abb60e01b81526020816004817f00000000000000000000000000000000000000000000000000000000000000006001600160a01b03165afa8015610418576102dc915f916103e9575b5015611198565b6102e4611214565b6102ef8115156110c4565b335f52600560205260405f205481116103b15761030e816004546110b7565b600455335f5260056020526103278160405f20546110b7565b335f52600560205260405f20555f80808084335af1610344611078565b501561037c576040519081527fefc8127cf8578e3bc03f4f8b964347cea522102e6484bb77bc4917b794817a6060203392a260015f55005b60405162461bcd60e51b815260206004820152600d60248201526c15539413115111d157d1905253609a1b6044820152606490fd5b60405162461bcd60e51b815260206004820152601060248201526f414d4f554e545f544f4f5f4c4152474560801b6044820152606490fd5b61040b915060203d602011610411575b6104038183610f0b565b810190611180565b836102d5565b503d6103f9565b6040513d5f823e3d90fd5b3461023b575f36600319011261023b576040517f00000000000000000000000000000000000000000000000000000000000000006001600160a01b03168152602090f35b5f36600319011261023b5760035460ff8160401c1660048110156101d65761049c9161027d67ffffffffffffffff92156110fc565b604051635c975abb60e01b81526020816004817f00000000000000000000000000000000000000000000000000000000000000006001600160a01b03165afa8015610418576104f2915f91610594575015611198565b6104fa611214565b341561055a57335f52600560205260405f206105173482546111d5565b9055610525346004546111d5565b6004556040513481527f2726ce6e3b7987cbbb10c5a55b44725526c540fbba590cfc20afab691fa45edf60203392a260015f55005b60405162461bcd60e51b8152602060048201526012602482015271105b5bdd5b9d081a5cc81c995c5d5a5c995960721b6044820152606490fd5b6105ad915060203d602011610411576104038183610f0b565b826102d5565b3461023b575f36600319011261023b576105cb611214565b60035460ff8160401c1660048110156101d6571580610a49575b6106ef575b5060ff60035460401c1660048110156101d6576002036106b457335f52600560205260405f205461061c8115156110c4565b610628816004546110b7565b600455335f5260056020525f60408120555f80808084335af1610649611078565b5015610681576040519081527fd7dee2702d63ad89917b6a4da9981c90c4d24f8c2bdfd64c604ecae57d8d065160203392a260015f55005b60405162461bcd60e51b815260206004820152600b60248201526a14915195539117d190525360aa1b6044820152606490fd5b60405162461bcd60e51b815260206004820152601360248201527210d05354105251d397d393d517d19052531151606a1b6044820152606490fd5b67ffffffffffffffff164210610a0d57610707611214565b60ff60035460401c1660048110156101d6576109d457600454600254118015906109ca576107356001611054565b7f41493253ae80c9f89e25283c36f67849365d0515134ce43de1314223cb6f73426020604051838152a17fafa725e7f44cadb687a7043853fa1a7e7b8f0da74ce87ec546e9420f04da8c1e602060ff60035460401c166107986040518092611047565ba16107a8575b60015f55806105ea565b6040516324a9d85360e01b81527f00000000000000000000000000000000000000000000000000000000000000006001600160a01b0316602082600481845afa918215610418575f9261098a575b506020600491604051928380926361d027b360e01b82525afa908115610418575f91610948575b50479161ffff168061091957505f905b816108af575b505f91829150819081907f00000000000000000000000000000000000000000000000000000000000000006001600160a01b03165af1610871611078565b5061079e5760405162461bcd60e51b815260206004820152601160248201527010d491505513d497d611915497d1905253607a1b6044820152606490fd5b5f808084819460018060a01b03165af16108c7611078565b50156108e4575f806108dc81949382946110b7565b935050610833565b60405162461bcd60e51b815260206004820152600d60248201526c11915157d611915497d1905253609a1b6044820152606490fd5b8083029083820414831517156109345761271090049061082d565b634e487b7160e01b5f52601160045260245ffd5b90506020813d602011610982575b8161096360209383610f0b565b8101031261023b57516001600160a01b038116810361023b578261081d565b3d9150610956565b9091506020813d6020116109c2575b816109a660209383610f0b565b8101031261023b575161ffff8116810361023b579060206107f6565b3d9150610999565b6107356002611054565b60405162461bcd60e51b81526020600482015260116024820152701053149150511657d19253905312569151607a1b6044820152606490fd5b60405162461bcd60e51b815260206004820152601460248201527321b0b6b830b4b3b71034b9903737ba1037bb32b960611b6044820152606490fd5b5067ffffffffffffffff81164210156105e5565b3461023b575f36600319011261023b576020600454604051908152f35b3461023b575f36600319011261023b5767ffffffffffffffff600354164210610a0d57610aa5611214565b60ff60035460401c1660048110156101d6576109d45760045460025411801590610d1b57610ad36001611054565b7f41493253ae80c9f89e25283c36f67849365d0515134ce43de1314223cb6f73426020604051838152a17fafa725e7f44cadb687a7043853fa1a7e7b8f0da74ce87ec546e9420f04da8c1e602060ff60035460401c16610b366040518092611047565ba1610b42575b60015f55005b6040516324a9d85360e01b81527f00000000000000000000000000000000000000000000000000000000000000006001600160a01b0316602082600481845afa918215610418575f92610cdb575b506020600491604051928380926361d027b360e01b82525afa908115610418575f91610c99575b50479161ffff1680610c7e57505f905b81610c49575b505f91829150819081907f00000000000000000000000000000000000000000000000000000000000000006001600160a01b03165af1610c0b611078565b50610b3c5760405162461bcd60e51b815260206004820152601160248201527010d491505513d497d611915497d1905253607a1b6044820152606490fd5b5f808084819460018060a01b03165af1610c61611078565b50156108e4575f80610c7681949382946110b7565b935050610bcd565b80830290838204148315171561093457612710900490610bc7565b90506020813d602011610cd3575b81610cb460209383610f0b565b8101031261023b57516001600160a01b038116810361023b5782610bb7565b3d9150610ca7565b9091506020813d602011610d13575b81610cf760209383610f0b565b8101031261023b575161ffff8116810361023b57906020610b90565b3d9150610cea565b610ad36002611054565b3461023b575f36600319011261023b5760025460035490610dba600454610d4a610f41565b90610da460405195869560018060a01b037f0000000000000000000000000000000000000000000000000000000000000000168752602087015267ffffffffffffffff8116604087015260ff606087019160401c16611047565b608084015260e060a084015260e0830190611023565b7f00000000000000000000000000000000000000000000000000000000000000006001600160a01b031660c08301520390f35b3461023b575f36600319011261023b576020600254604051908152f35b3461023b57602036600319011261023b576004356001600160a01b0381169081900361023b575f526005602052602060405f2054604051908152f35b3461023b575f36600319011261023b57602067ffffffffffffffff60035416604051908152f35b3461023b575f36600319011261023b57602060ff60035460401c16610e956040518092611047565bf35b3461023b575f36600319011261023b57610ec6610eb2610f41565b604051918291602083526020830190611023565b0390f35b3461023b575f36600319011261023b577f00000000000000000000000000000000000000000000000000000000000000006001600160a01b03168152602090f35b90601f8019910116810190811067ffffffffffffffff821117610f2d57604052565b634e487b7160e01b5f52604160045260245ffd5b604051905f6001548060011c9160018216918215611019575b602084108314611005578386528592908115610fe65750600114610f87575b610f8592500383610f0b565b565b5060015f90815290917fb10e2d527612073b26eecdfd717e6a320cf44b4afac2b0732d9fcbe2b7fa0cf65b818310610fca575050906020610f8592820101610f79565b6020919350806001915483858901015201910190918492610fb2565b60209250610f8594915060ff191682840152151560051b820101610f79565b634e487b7160e01b5f52602260045260245ffd5b92607f1692610f5a565b805180835260209291819084018484015e5f828201840152601f01601f1916010190565b9060048210156101d65752565b60048110156101d65760ff60401b6003549160401b169060ff60401b191617600355565b3d156110b2573d9067ffffffffffffffff8211610f2d57604051916110a7601f8201601f191660200184610f0b565b82523d5f602084013e565b606090565b9190820391821161093457565b156110cb57565b60405162461bcd60e51b81526020600482015260096024820152684e4f5f504c4544474560b81b6044820152606490fd5b1561110357565b60405162461bcd60e51b815260206004820152601660248201527543616d706169676e206973206e6f742061637469766560501b6044820152606490fd5b1561114857565b60405162461bcd60e51b815260206004820152601060248201526f21b0b6b830b4b3b71034b99037bb32b960811b6044820152606490fd5b9081602091031261023b5751801515810361023b5790565b1561119f57565b60405162461bcd60e51b815260206004820152600e60248201526d119050d513d49657d4105554d15160921b6044820152606490fd5b9190820180921161093457565b60405162461bcd60e51b815260206004820152600a6024820152695553455f504c4544474560b01b6044820152606490fd5b60025f54146112235760025f55565b633ee5aeb560e01b5f5260045ffdfea2646970667358221220685bb44d31e6c700b22edb6ebb28224d59872820f59996412124fb55d1a5457564736f6c634300081e0033","linkReferences":{}},"methodIdentifiers":{"cancel()":"ea8a1af0","creator()":"02d05d3f","deadline()":"29dcb0cf","factory()":"c45a0155","finalize()":"4bb278f3","getSummary()":"4051ddac","goal()":"40193883","metadataURI()":"03ee438c","pledge()":"88ffe867","pledges(address)":"343576f5","refund()":"590e1ae3","status()":"200d2ed2","totalPledged()":"55468ba4","unpledge(uint256)":"c7258ba6"},"id":19}