{"abi":[{"type":"constructor","inputs":[{"name":"_creator","type":"address","internalType":"address"},{"name":"_factory","type":"address","internalType":"address"},{"name":"_goal","type":"uint256","internalType":"uint256"},{"name":"_deadline","type":"uint64","internalType":"uint64"},{"name":"_metadataURI","type":"string","internalType":"string"}],"stateMutability":"nonpayable"},{"type":"fallback","stateMutability":"payable"},{"type":"receive","stateMutability":"payable"},{"type":"function","name":"cancel","inputs":[],"outputs":[],"stateMutability":"nonpayable"},{"type":"function","name":"creator","inputs":[],"outputs":[{"name":"","type":"address","internalType":"address"}],"stateMutability":"view"},{"type":"function","name":"deadline","inputs":[],"outputs":[{"name":"","type":"uint64","internalType":"uint64"}],"stateMutability":"view"},{"type":"function","name":"factory","inputs":[],"outputs":[{"name":"","type":"address","internalType":"address"}],"stateMutability":"view"},{"type":"function","name":"finalize","inputs":[],"outputs":[],"stateMutability":"nonpayable"},{"type":"function","name":"getSummary","inputs":[],"outputs":[{"name":"_creator","type":"address","internalType":"address"},{"name":"_goal","type":"uint256","internalType":"uint256"},{"name":"_deadline","type":"uint64","internalType":"uint64"},{"name":"_status","type":"uint8","internalType":"enum Campaign.Status"},{"name":"_totalPledged","type":"uint256","internalType":"uint256"},{"name":"_metadataURI","type":"string","internalType":"string"},{"name":"_factory","type":"address","internalType":"address"}],"stateMutability":"view"},{"type":"function","name":"goal","inputs":[],"outputs":[{"name":"","type":"uint256","internalType":"uint256"}],"stateMutability":"view"},{"type":"function","name":"metadataURI","inputs":[],"outputs":[{"name":"","type":"string","internalType":"string"}],"stateMutability":"view"},{"type":"function","name":"pledge","inputs":[],"outputs":[],"stateMutability":"payable"},{"type":"function","name":"pledges","inputs":[{"name":"","type":"address","internalType":"address"}],"outputs":[{"name":"","type":"uint256","internalType":"uint256"}],"stateMutability":"view"},{"type":"function","name":"refund","inputs":[],"outputs":[],"stateMutability":"nonpayable"},{"type":"function","name":"status","inputs":[],"outputs":[{"name":"","type":"uint8","internalType":"enum Campaign.Status"}],"stateMutability":"view"},{"type":"function","name":"totalPledged","inputs":[],"outputs":[{"name":"","type":"uint256","internalType":"uint256"}],"stateMutability":"view"},{"type":"function","name":"unpledge","inputs":[{"name":"_amount","type":"uint256","internalType":"uint256"}],"outputs":[],"stateMutability":"nonpayable"},{"type":"event","name":"Cancelled","inputs":[],"anonymous":false},{"type":"event","name":"Finalized","inputs":[{"name":"success","type":"bool","indexed":false,"internalType":"bool"}],"anonymous":false},{"type":"event","name":"Pledged","inputs":[{"name":"backer","type":"address","indexed":true,"internalType":"address"},{"name":"amount","type":"uint256","indexed":false,"internalType":"uint256"}],"anonymous":false},{"type":"event","name":"Refunded","inputs":[{"name":"backer","type":"address","indexed":true,"internalType":"address"},{"name":"amount","type":"uint256","indexed":false,"internalType":"uint256"}],"anonymous":false},{"type":"event","name":"StatusChanged","inputs":[{"name":"newStatus","type":"uint8","indexed":false,"internalType":"enum Campaign.Status"}],"anonymous":false},{"type":"event","name":"Unpledged","inputs":[{"name":"backer","type":"address","indexed":true,"internalType":"address"},{"name":"amount","type":"uint256","indexed":false,"internalType":"uint256"}],"anonymous":false},{"type":"error","name":"ReentrancyGuardReentrantCall","inputs":[]}],"bytecode":{"object":"0x60c0604052346104065761141f803803806100198161040a565b92833981019060a081830312610406576100328161042f565b61003e6020830161042f565b604083015160608401516001600160401b0381169491939190859003610406576080810151906001600160401b038211610406570185601f82011215610406578051906001600160401b0382116102b7576100a2601f8301601f191660200161040a565b968288526020838301011161040657815f926020809301838a015e8701015260015f556001600160a01b038116156103c1578215610389574284111561035557845115610310576001600160a01b038216156102cb5760805260a052600255600380546001600160481b0319169190911790555f60045580516001600160401b0381116102b757600154600181811c911680156102ad575b602082101461029957601f8111610236575b50602091601f82116001146101d6579181925f926101cb575b50508160011b915f199060031b1c1916176001555b604051610fdb9081610444823960805181818160d2015281816107dc0152818161095b0152610deb015260a05181818161029a01528181610438015281816104b10152818161083b0152610d630152f35b015190505f80610165565b601f1982169260015f52805f20915f5b85811061021e57508360019510610206575b505050811b0160015561017a565b01515f1960f88460031b161c191690555f80806101f8565b919260206001819286850151815501940192016101e6565b60015f527fb10e2d527612073b26eecdfd717e6a320cf44b4afac2b0732d9fcbe2b7fa0cf6601f830160051c8101916020841061028f575b601f0160051c01905b818110610284575061014c565b5f8155600101610277565b909150819061026e565b634e487b7160e01b5f52602260045260245ffd5b90607f169061013a565b634e487b7160e01b5f52604160045260245ffd5b60405162461bcd60e51b815260206004820152601360248201527f466163746f7279206973207265717569726564000000000000000000000000006044820152606490fd5b60405162461bcd60e51b815260206004820152601460248201527f494e56414c49445f4d455441444154415f5552490000000000000000000000006044820152606490fd5b60405162461bcd60e51b815260206004820152600c60248201526b4241445f444541444c494e4560a01b6044820152606490fd5b60405162461bcd60e51b815260206004820152601060248201526f11dbd85b081a5cc81c995c5d5a5c995960821b6044820152606490fd5b60405162461bcd60e51b815260206004820152601360248201527f43726561746f72206973207265717569726564000000000000000000000000006044820152606490fd5b5f80fd5b6040519190601f01601f191682016001600160401b038111838210176102b757604052565b51906001600160a01b03821682036104065756fe608080604052600436101561001a575b5036610c5157610c51565b5f3560e01c90816302d05d3f146109495750806303ee438c14610916578063200d2ed2146108ec57806329dcb0cf146108c5578063343576f514610889578063401938831461086c5780634051ddac146107a45780634bb278f31461072f57806355468ba414610712578063590e1ae3146105b357806388ffe86714610467578063c45a015514610423578063c7258ba61461023f5763ea8a1af0146100c0575f61000f565b3461023b575f36600319011261023b577f00000000000000000000000000000000000000000000000000000000000000006001600160a01b031633036101ea5760ff60035460401c1660048110156101d65761011c9015610b6b565b60045461019b576803000000000000000060ff60401b1960035416176003557fafa725e7f44cadb687a7043853fa1a7e7b8f0da74ce87ec546e9420f04da8c1e602060ff60035460401c166101746040518092610ac6565ba17f63b958841f79ab97cb5456da181454b9932c0e15a3b17f1cbd27e2a8bc6104375f80a1005b60405162461bcd60e51b815260206004820152601360248201527243414d504149474e5f4841535f504c4544474560681b6044820152606490fd5b634e487b7160e01b5f52602160045260245ffd5b60405162461bcd60e51b815260206004820152602360248201527f4f6e6c792063726561746f722063616e2063616c6c20746869732066756e637460448201526234b7b760e91b6064820152608490fd5b5f80fd5b3461023b57602036600319011261023b5760043560035460ff8160401c1660048110156101d6576102859161027d67ffffffffffffffff9215610b6b565b164210610bb0565b604051635c975abb60e01b81526020816004817f00000000000000000000000000000000000000000000000000000000000000006001600160a01b03165afa8015610418576102dc915f916103e9575b5015610c07565b6102e4610c83565b6102ef811515610ad3565b335f52600560205260405f205481116103b15761030e81600454610b0b565b600455335f5260056020526103278160405f2054610b0b565b335f52600560205260405f20555f80808084335af1610344610b2c565b501561037c576040519081527fefc8127cf8578e3bc03f4f8b964347cea522102e6484bb77bc4917b794817a6060203392a260015f55005b60405162461bcd60e51b815260206004820152600d60248201526c15539413115111d157d1905253609a1b6044820152606490fd5b60405162461bcd60e51b815260206004820152601060248201526f414d4f554e545f544f4f5f4c4152474560801b6044820152606490fd5b61040b915060203d602011610411575b610403818361098a565b810190610bef565b836102d5565b503d6103f9565b6040513d5f823e3d90fd5b3461023b575f36600319011261023b576040517f00000000000000000000000000000000000000000000000000000000000000006001600160a01b03168152602090f35b5f36600319011261023b5760035460ff8160401c1660048110156101d65761049c9161027d67ffffffffffffffff9215610b6b565b604051635c975abb60e01b81526020816004817f00000000000000000000000000000000000000000000000000000000000000006001600160a01b03165afa8015610418576104f2915f91610594575015610c07565b6104fa610c83565b341561055a57335f52600560205260405f20610517348254610c44565b905561052534600454610c44565b6004556040513481527f2726ce6e3b7987cbbb10c5a55b44725526c540fbba590cfc20afab691fa45edf60203392a260015f55005b60405162461bcd60e51b8152602060048201526012602482015271105b5bdd5b9d081a5cc81c995c5d5a5c995960721b6044820152606490fd5b6105ad915060203d60201161041157610403818361098a565b826102d5565b3461023b575f36600319011261023b576105cb610c83565b60035460ff8160401c1660048110156101d6571590816106fd575b506106f0575b60ff60035460401c1660048110156101d6576002036106b557335f52600560205260405f205461061d811515610ad3565b61062981600454610b0b565b600455335f5260056020525f60408120555f80808084335af161064a610b2c565b5015610682576040519081527fd7dee2702d63ad89917b6a4da9981c90c4d24f8c2bdfd64c604ecae57d8d065160203392a260015f55005b60405162461bcd60e51b815260206004820152600b60248201526a14915195539117d190525360aa1b6044820152606490fd5b60405162461bcd60e51b815260206004820152601360248201527210d05354105251d397d393d517d19052531151606a1b6044820152606490fd5b6106f8610ca1565b6105ec565b67ffffffffffffffff915016421015816105e6565b3461023b575f36600319011261023b576020600454604051908152f35b3461023b575f36600319011261023b5767ffffffffffffffff6003541642106107685761075a610c83565b610762610ca1565b60015f55005b60405162461bcd60e51b815260206004820152601460248201527321b0b6b830b4b3b71034b9903737ba1037bb32b960611b6044820152606490fd5b3461023b575f36600319011261023b57600254600354906108396004546107c96109c0565b9061082360405195869560018060a01b037f0000000000000000000000000000000000000000000000000000000000000000168752602087015267ffffffffffffffff8116604087015260ff606087019160401c16610ac6565b608084015260e060a084015260e0830190610aa2565b7f00000000000000000000000000000000000000000000000000000000000000006001600160a01b031660c08301520390f35b3461023b575f36600319011261023b576020600254604051908152f35b3461023b57602036600319011261023b576004356001600160a01b0381169081900361023b575f526005602052602060405f2054604051908152f35b3461023b575f36600319011261023b57602067ffffffffffffffff60035416604051908152f35b3461023b575f36600319011261023b57602060ff60035460401c166109146040518092610ac6565bf35b3461023b575f36600319011261023b576109456109316109c0565b604051918291602083526020830190610aa2565b0390f35b3461023b575f36600319011261023b577f00000000000000000000000000000000000000000000000000000000000000006001600160a01b03168152602090f35b90601f8019910116810190811067ffffffffffffffff8211176109ac57604052565b634e487b7160e01b5f52604160045260245ffd5b604051905f6001548060011c9160018216918215610a98575b602084108314610a84578386528592908115610a655750600114610a06575b610a049250038361098a565b565b5060015f90815290917fb10e2d527612073b26eecdfd717e6a320cf44b4afac2b0732d9fcbe2b7fa0cf65b818310610a49575050906020610a04928201016109f8565b6020919350806001915483858901015201910190918492610a31565b60209250610a0494915060ff191682840152151560051b8201016109f8565b634e487b7160e01b5f52602260045260245ffd5b92607f16926109d9565b805180835260209291819084018484015e5f828201840152601f01601f1916010190565b9060048210156101d65752565b15610ada57565b60405162461bcd60e51b81526020600482015260096024820152684e4f5f504c4544474560b81b6044820152606490fd5b91908203918211610b1857565b634e487b7160e01b5f52601160045260245ffd5b3d15610b66573d9067ffffffffffffffff82116109ac5760405191610b5b601f8201601f19166020018461098a565b82523d5f602084013e565b606090565b15610b7257565b60405162461bcd60e51b815260206004820152601660248201527543616d706169676e206973206e6f742061637469766560501b6044820152606490fd5b15610bb757565b60405162461bcd60e51b815260206004820152601060248201526f21b0b6b830b4b3b71034b99037bb32b960811b6044820152606490fd5b9081602091031261023b5751801515810361023b5790565b15610c0e57565b60405162461bcd60e51b815260206004820152600e60248201526d119050d513d49657d4105554d15160921b6044820152606490fd5b91908201809211610b1857565b60405162461bcd60e51b815260206004820152600a6024820152695553455f504c4544474560b01b6044820152606490fd5b60025f5414610c925760025f55565b633ee5aeb560e01b5f5260045ffd5b60ff60035460401c1660048110156101d657610f6c5760045460025411801590610f655760015b60048110156101d65760ff60401b6003549160401b169060ff60401b1916176003557f41493253ae80c9f89e25283c36f67849365d0515134ce43de1314223cb6f73426020604051838152a17fafa725e7f44cadb687a7043853fa1a7e7b8f0da74ce87ec546e9420f04da8c1e602060ff60035460401c16610d4d6040518092610ac6565ba1610d5457565b6040516324a9d85360e01b81527f00000000000000000000000000000000000000000000000000000000000000006001600160a01b0316602082600481845afa918215610418575f92610f25575b506020600491604051928380926361d027b360e01b82525afa908115610418575f91610ee3575b50479161ffff1680610ec857505f905b81610e5e575b505f91829150819081907f00000000000000000000000000000000000000000000000000000000000000006001600160a01b03165af1610e1d610b2c565b5015610e2557565b60405162461bcd60e51b815260206004820152601160248201527010d491505513d497d611915497d1905253607a1b6044820152606490fd5b5f808084819460018060a01b03165af1610e76610b2c565b5015610e93575f80610e8b8194938294610b0b565b935050610ddf565b60405162461bcd60e51b815260206004820152600d60248201526c11915157d611915497d1905253609a1b6044820152606490fd5b808302908382041483151715610b1857612710900490610dd9565b90506020813d602011610f1d575b81610efe6020938361098a565b8101031261023b57516001600160a01b038116810361023b575f610dc9565b3d9150610ef1565b9091506020813d602011610f5d575b81610f416020938361098a565b8101031261023b575161ffff8116810361023b57906020610da2565b3d9150610f34565b6002610cc8565b60405162461bcd60e51b81526020600482015260116024820152701053149150511657d19253905312569151607a1b6044820152606490fdfea264697066735822122011fce8c07a8fc8e136c1952c432d63b56f56c8eaad34ca3d4d7a3474572dda1a64736f6c634300081e0033","linkReferences":{}},"methodIdentifiers":{"cancel()":"ea8a1af0","creator()":"02d05d3f","deadline()":"29dcb0cf","factory()":"c45a0155","finalize()":"4bb278f3","getSummary()":"4051ddac","goal()":"40193883","metadataURI()":"03ee438c","pledge()":"88ffe867","pledges(address)":"343576f5","refund()":"590e1ae3","status()":"200d2ed2","totalPledged()":"55468ba4","unpledge(uint256)":"c7258ba6"},"id":24}