{"abi":[{"type":"constructor","inputs":[{"name":"_treasury","type":"address","internalType":"address"},{"name":"_feeBps","type":"uint16","internalType":"uint16"}],"stateMutability":"nonpayable"},{"type":"function","name":"bannedCreators","inputs":[{"name":"","type":"address","internalType":"address"}],"outputs":[{"name":"","type":"bool","internalType":"bool"}],"stateMutability":"view"},{"type":"function","name":"campaigns","inputs":[{"name":"","type":"uint256","internalType":"uint256"}],"outputs":[{"name":"","type":"address","internalType":"address"}],"stateMutability":"view"},{"type":"function","name":"campaignsLength","inputs":[],"outputs":[{"name":"","type":"uint256","internalType":"uint256"}],"stateMutability":"view"},{"type":"function","name":"createCampaign","inputs":[{"name":"goal","type":"uint256","internalType":"uint256"},{"name":"deadline","type":"uint64","internalType":"uint64"},{"name":"metadataURI","type":"string","internalType":"string"}],"outputs":[{"name":"campaign","type":"address","internalType":"address"}],"stateMutability":"nonpayable"},{"type":"function","name":"owner","inputs":[],"outputs":[{"name":"","type":"address","internalType":"address"}],"stateMutability":"view"},{"type":"function","name":"paused","inputs":[],"outputs":[{"name":"","type":"bool","internalType":"bool"}],"stateMutability":"view"},{"type":"function","name":"renounceOwnership","inputs":[],"outputs":[],"stateMutability":"nonpayable"},{"type":"function","name":"setBanned","inputs":[{"name":"creator","type":"address","internalType":"address"},{"name":"banned","type":"bool","internalType":"bool"}],"outputs":[],"stateMutability":"nonpayable"},{"type":"function","name":"setFeeBps","inputs":[{"name":"_bps","type":"uint16","internalType":"uint16"}],"outputs":[],"stateMutability":"nonpayable"},{"type":"function","name":"setPaused","inputs":[{"name":"_p","type":"bool","internalType":"bool"}],"outputs":[],"stateMutability":"nonpayable"},{"type":"function","name":"setTreasury","inputs":[{"name":"_treasury","type":"address","internalType":"address"}],"outputs":[],"stateMutability":"nonpayable"},{"type":"function","name":"transferOwnership","inputs":[{"name":"newOwner","type":"address","internalType":"address"}],"outputs":[],"stateMutability":"nonpayable"},{"type":"event","name":"CampaignCreated","inputs":[{"name":"campaign","type":"address","indexed":false,"internalType":"address"},{"name":"creator","type":"address","indexed":true,"internalType":"address"},{"name":"id","type":"uint256","indexed":true,"internalType":"uint256"}],"anonymous":false},{"type":"event","name":"CreatorBanned","inputs":[{"name":"creator","type":"address","indexed":true,"internalType":"address"},{"name":"banned","type":"bool","indexed":false,"internalType":"bool"}],"anonymous":false},{"type":"event","name":"FeeBpsUpdated","inputs":[{"name":"oldFee","type":"uint16","indexed":false,"internalType":"uint16"},{"name":"newFee","type":"uint16","indexed":false,"internalType":"uint16"}],"anonymous":false},{"type":"event","name":"OwnershipTransferred","inputs":[{"name":"previousOwner","type":"address","indexed":true,"internalType":"address"},{"name":"newOwner","type":"address","indexed":true,"internalType":"address"}],"anonymous":false},{"type":"event","name":"Paused","inputs":[{"name":"paused","type":"bool","indexed":false,"internalType":"bool"}],"anonymous":false},{"type":"event","name":"TreasuryUpdated","inputs":[{"name":"oldTreasury","type":"address","indexed":false,"internalType":"address"},{"name":"newTreasury","type":"address","indexed":false,"internalType":"address"}],"anonymous":false},{"type":"error","name":"OwnableInvalidOwner","inputs":[{"name":"owner","type":"address","internalType":"address"}]},{"type":"error","name":"OwnableUnauthorizedAccount","inputs":[{"name":"account","type":"address","internalType":"address"}]}],"bytecode":{"object":"0x60803461018057601f611a0e38819003918201601f19168301916001600160401b038311848410176101845780849260409485528339810103126101805780516001600160a01b038116919082900361018057602001519061ffff821680830361018057331561016d575f8054336001600160a01b03198216811783556040519290916001600160a01b0316907f8be0079c531659141344cd1fd0a4f28419497f9722a3daafe3b4186f6b6457e09080a382156101385750801515908161012b575b50156100f4576001549161ffff60a01b9060a01b169160018060b01b031916171760015560405161187590816101998239f35b60405162461bcd60e51b815260206004820152600f60248201526e494e56414c49445f4645455f42505360881b6044820152606490fd5b612710915011155f6100c1565b62461bcd60e51b815260206004820152601060248201526f494e56414c49445f545245415355525960801b6044820152606490fd5b631e4fbdf760e01b5f525f60045260245ffd5b5f80fd5b634e487b7160e01b5f52604160045260245ffdfe6080806040526004361015610012575f80fd5b5f3560e01c9081630133ea5c1461078d57508063023b1fc9146106d0578063141961bc1461068e57806316c38b3c1461062c5780635706ae93146103195780635c975abb146102f75780635f3179c3146102da578063715018a61461028357806388c9bcce146102065780638da5cb5b146101df578063f0f44260146101295763f2fde38b146100a0575f80fd5b34610125576020366003190112610125576100b96107c6565b6100c1610808565b6001600160a01b03168015610112575f80546001600160a01b03198116831782556001600160a01b0316907f8be0079c531659141344cd1fd0a4f28419497f9722a3daafe3b4186f6b6457e09080a3005b631e4fbdf760e01b5f525f60045260245ffd5b5f80fd5b34610125576020366003190112610125576101426107c6565b61014a610808565b6001600160a01b031680156101a757600154604080516001600160a01b0383168152602081018490527f4ab5be82436d353e61ca18726e984e561f5c1cc7c6d38b29d2553c790434705a9190a16001600160a01b03191617600155005b60405162461bcd60e51b815260206004820152601060248201526f494e56414c49445f545245415355525960801b6044820152606490fd5b34610125575f366003190112610125575f546040516001600160a01b039091168152602090f35b346101255760403660031901126101255761021f6107c6565b602435908115158092036101255760207f1284e03566d6e822d93d81be615cab25664ae5881187917447954596cfd812c891610259610808565b60018060a01b031692835f526004825260405f2060ff1981541660ff8316179055604051908152a2005b34610125575f3660031901126101255761029b610808565b5f80546001600160a01b0319811682556001600160a01b03167f8be0079c531659141344cd1fd0a4f28419497f9722a3daafe3b4186f6b6457e08280a3005b34610125575f366003190112610125576020600254604051908152f35b34610125575f36600319011261012557602060ff600354166040519015158152f35b34610125576060366003190112610125576004356024359067ffffffffffffffff8216809203610125576044359167ffffffffffffffff831161012557366023840112156101255782600401359067ffffffffffffffff82116105015760405191601f8101601f19908116603f0116830167ffffffffffffffff811184821017610501576040528083526020830194366024838301011161012557815f9260246020930188378401015260ff600354166105fe57335f52600460205260ff60405f2054166105c8578215610594574281111561055c578151156105205760405193611011928386019286841067ffffffffffffffff8511176105015760c095879561082f87393385523060208601526040850152606084015260a060808401525180918160a08501528584015e5f848284010152601f8019910116010301905ff080156105155760018060a01b0316600254680100000000000000008110156105015780600161048c92016002556107dc565b81546001600160a01b0360039290921b91821b19169083901b1790556002545f198101919082116104ed576020916040518281527fc5099b671a0e7e75b6a5d731232dc609f91567fd0a1fb5921f49ee14d60a13b9843392a3604051908152f35b634e487b7160e01b5f52601160045260245ffd5b634e487b7160e01b5f52604160045260245ffd5b6040513d5f823e3d90fd5b60405162461bcd60e51b8152602060048201526014602482015273494e56414c49445f4d455441444154415f55524960601b6044820152606490fd5b60405162461bcd60e51b815260206004820152601060248201526f494e56414c49445f444541444c494e4560801b6044820152606490fd5b60405162461bcd60e51b815260206004820152600c60248201526b1253959053125117d1d3d05360a21b6044820152606490fd5b60405162461bcd60e51b815260206004820152600e60248201526d10d491505513d497d0905393915160921b6044820152606490fd5b60405162461bcd60e51b815260206004820152600660248201526514105554d15160d21b6044820152606490fd5b34610125576020366003190112610125576004358015158091036101255760207f0e2fb031ee032dc02d8011dc50b816eb450cf856abd8261680dac74f72165bd291610676610808565b60ff196003541660ff821617600355604051908152a1005b3461012557602036600319011261012557600435600254811015610125576106b76020916107dc565b905460405160039290921b1c6001600160a01b03168152f35b346101255760203660031901126101255760043561ffff811690818103610125576106f9610808565b6127108211610759577f8d10f5697a370f640ed5d474159aba3cc86e9bc260a5e9d2db875ad992cb1a1f60406001549381519061ffff8660a01c1682526020820152a161ffff60a01b1990911660a09190911b61ffff60a01b1617600155005b60405162461bcd60e51b815260206004820152600c60248201526b08c8a8abea89e9ebe90928e960a31b6044820152606490fd5b34610125576020366003190112610125576020906001600160a01b036107b16107c6565b165f526004825260ff60405f20541615158152f35b600435906001600160a01b038216820361012557565b6002548110156107f45760025f5260205f2001905f90565b634e487b7160e01b5f52603260045260245ffd5b5f546001600160a01b0316330361081b57565b63118cdaa760e01b5f523360045260245ffdfe60a0604052346103e55761101180380380610019816103e9565b92833981019060a0818303126103e5576100328161040e565b61003e6020830161040e565b604083015160608401516001600160401b03811694919391908590036103e5576080810151906001600160401b0382116103e5570185601f820112156103e5578051906001600160401b038211610296576100a2601f8301601f19166020016103e9565b96828852602083830101116103e557815f926020809301838a015e8701015260015f556001600160a01b031680156103a05782156103685742841115610334578451156102ef576001600160a01b038216156102aa57600180546001600160a01b031916919091179055608052600355600480546001600160481b0319169190911790555f60055580516001600160401b03811161029657600254600181811c9116801561028c575b602082101461027857601f8111610215575b50602091601f82116001146101b5579181925f926101aa575b50508160011b915f199060031b1c1916176002555b604051610bee9081610423823960805181818161030001526105bf0152f35b015190505f80610176565b601f1982169260025f52805f20915f5b8581106101fd575083600195106101e5575b505050811b0160025561018b565b01515f1960f88460031b161c191690555f80806101d7565b919260206001819286850151815501940192016101c5565b60025f527f405787fa12a823e0f2b7631cc41b3ba8828b3321ca811111fa75cd3aa3bb5ace601f830160051c8101916020841061026e575b601f0160051c01905b818110610263575061015d565b5f8155600101610256565b909150819061024d565b634e487b7160e01b5f52602260045260245ffd5b90607f169061014b565b634e487b7160e01b5f52604160045260245ffd5b60405162461bcd60e51b815260206004820152601360248201527f466163746f7279206973207265717569726564000000000000000000000000006044820152606490fd5b60405162461bcd60e51b815260206004820152601460248201527f494e56414c49445f4d455441444154415f5552490000000000000000000000006044820152606490fd5b60405162461bcd60e51b815260206004820152600c60248201526b4241445f444541444c494e4560a01b6044820152606490fd5b60405162461bcd60e51b815260206004820152601060248201526f11dbd85b081a5cc81c995c5d5a5c995960821b6044820152606490fd5b60405162461bcd60e51b815260206004820152601360248201527f43726561746f72206973207265717569726564000000000000000000000000006044820152606490fd5b5f80fd5b6040519190601f01601f191682016001600160401b0381118382101761029657604052565b51906001600160a01b03821682036103e55756fe608080604052600436101561001a575b5036610b6857610b68565b5f3560e01c90816303ee438c146108ab575080634051ddac1461084a5780634bb278f314610522578063590e1ae31461040657806388ffe8671461032f578063c45a0155146102eb578063c7258ba6146101985763ea8a1af01461007e575f61000f565b34610194575f366003190112610194576100a360018060a01b036001541633146109fb565b6100ab610b9a565b60ff60045460401c166004811015610180576101455760055461010a576803000000000000000060ff60401b1960045416176004557f63b958841f79ab97cb5456da181454b9932c0e15a3b17f1cbd27e2a8bc6104375f80a160015f55005b60405162461bcd60e51b815260206004820152601360248201527243414d504149474e5f4841535f504c4544474560681b6044820152606490fd5b60405162461bcd60e51b815260206004820152601360248201527243414d504149474e5f4e4f545f41435449564560681b6044820152606490fd5b634e487b7160e01b5f52602160045260245ffd5b5f80fd5b346101945760203660031901126101945760043560045460ff8160401c166004811015610180576101de916101d667ffffffffffffffff9215610ad7565b164210610b1c565b6101e6610b9a565b6101f1811515610a9f565b335f52600660205260405f205481116102b3575f8080836102158295600554610a92565b600555338252600660205261022e816040842054610a92565b338352600660205260408320556040518181527fefc8127cf8578e3bc03f4f8b964347cea522102e6484bb77bc4917b794817a6060203392a2335af1610272610a53565b501561027e5760015f55005b60405162461bcd60e51b815260206004820152600d60248201526c15539413115111d157d1905253609a1b6044820152606490fd5b60405162461bcd60e51b815260206004820152601060248201526f414d4f554e545f544f4f5f4c4152474560801b6044820152606490fd5b34610194575f366003190112610194576040517f00000000000000000000000000000000000000000000000000000000000000006001600160a01b03168152602090f35b5f3660031901126101945760045460ff8160401c16600481101561018057610364916101d667ffffffffffffffff9215610ad7565b61036c610b9a565b34156103cc57335f52600660205260405f20610389348254610b5b565b905561039734600554610b5b565b6005556040513481527f2726ce6e3b7987cbbb10c5a55b44725526c540fbba590cfc20afab691fa45edf60203392a260015f55005b60405162461bcd60e51b8152602060048201526012602482015271105b5bdd5b9d081a5cc81c995c5d5a5c995960721b6044820152606490fd5b34610194575f3660031901126101945761041e610b9a565b60ff60045460401c166004811015610180576002036104e757335f52600660205260405f205461044f811515610a9f565b61045b81600554610a92565b600555335f5260066020525f60408120555f80808084335af161047c610a53565b50156104b4576040519081527fd7dee2702d63ad89917b6a4da9981c90c4d24f8c2bdfd64c604ecae57d8d065160203392a260015f55005b60405162461bcd60e51b815260206004820152600b60248201526a14915195539117d190525360aa1b6044820152606490fd5b60405162461bcd60e51b815260206004820152601360248201527210d05354105251d397d393d517d19052531151606a1b6044820152606490fd5b34610194575f3660031901126101945761054760018060a01b036001541633146109fb565b67ffffffffffffffff60045416421061080e57610562610b9a565b600554600354116107c7576801000000000000000060ff60401b1960045416176004557f41493253ae80c9f89e25283c36f67849365d0515134ce43de1314223cb6f7342602060405160018152a16040516324a9d85360e01b81527f00000000000000000000000000000000000000000000000000000000000000006001600160a01b0316602082600481845afa91821561077c575f92610787575b506020600491604051928380926361d027b360e01b82525afa90811561077c575f9161073a575b50479161ffff168061070b57505f905b816106a1575b50506001545f918291829182916001600160a01b03165af161065b610a53565b5015610668575b60015f55005b60405162461bcd60e51b815260206004820152601160248201527010d491505513d497d611915497d1905253607a1b6044820152606490fd5b5f808084819460018060a01b03165af16106b9610a53565b50156106d6575f806106ce8194938294610a92565b93505061063b565b60405162461bcd60e51b815260206004820152600d60248201526c11915157d611915497d1905253609a1b6044820152606490fd5b80830290838204148315171561072657612710900490610635565b634e487b7160e01b5f52601160045260245ffd5b90506020813d602011610774575b81610755602093836109c5565b8101031261019457516001600160a01b03811681036101945782610625565b3d9150610748565b6040513d5f823e3d90fd5b9091506020813d6020116107bf575b816107a3602093836109c5565b81010312610194575161ffff81168103610194579060206105fe565b3d9150610796565b6802000000000000000060ff60401b1960045416176004557f41493253ae80c9f89e25283c36f67849365d0515134ce43de1314223cb6f734260206040515f8152a1610662565b60405162461bcd60e51b815260206004820152601460248201527321b0b6b830b4b3b71034b9903737ba1037bb32b960611b6044820152606490fd5b34610194575f3660031901126101945760018060a01b0360015416600354906004549167ffffffffffffffff60ff8460401c169360055492604051948552602085015216604083015260048310156101805760a09260608301526080820152f35b34610194575f366003190112610194575f90600254918260011c600184169384156109bb575b6020821085146109a757818452602084019490811561098c575060011461092e575b50906109038160409303826109c5565b8151928391602083525180918160208501528484015e5f828201840152601f01601f19168101030190f35b91905060025f527f405787fa12a823e0f2b7631cc41b3ba8828b3321ca811111fa75cd3aa3bb5ace915f905b808210610972575090915081016020016109036108f3565b91926001816020925483858801015201910190929161095a565b60ff1916855250151560051b820160200190506109036108f3565b634e487b7160e01b5f52602260045260245ffd5b90607f16906108d1565b90601f8019910116810190811067ffffffffffffffff8211176109e757604052565b634e487b7160e01b5f52604160045260245ffd5b15610a0257565b60405162461bcd60e51b815260206004820152602360248201527f4f6e6c792063726561746f722063616e2063616c6c20746869732066756e637460448201526234b7b760e91b6064820152608490fd5b3d15610a8d573d9067ffffffffffffffff82116109e75760405191610a82601f8201601f1916602001846109c5565b82523d5f602084013e565b606090565b9190820391821161072657565b15610aa657565b60405162461bcd60e51b81526020600482015260096024820152684e4f5f504c4544474560b81b6044820152606490fd5b15610ade57565b60405162461bcd60e51b815260206004820152601660248201527543616d706169676e206973206e6f742061637469766560501b6044820152606490fd5b15610b2357565b60405162461bcd60e51b815260206004820152601060248201526f21b0b6b830b4b3b71034b99037bb32b960811b6044820152606490fd5b9190820180921161072657565b60405162461bcd60e51b815260206004820152600a6024820152695553455f504c4544474560b01b6044820152606490fd5b60025f5414610ba95760025f55565b633ee5aeb560e01b5f5260045ffdfea2646970667358221220e9955a17d8641a12ec6a6de1e6b65a8b7679edf61c6c2db9824deea4bc7835eb64736f6c634300081e0033a26469706673582212207ea5c7e652f29f15aa4aa65143943d37fb3e879529f613269c38fa7248f0c1e064736f6c634300081e0033","linkReferences":{}},"methodIdentifiers":{"bannedCreators(address)":"0133ea5c","campaigns(uint256)":"141961bc","campaignsLength()":"5f3179c3","createCampaign(uint256,uint64,string)":"5706ae93","owner()":"8da5cb5b","paused()":"5c975abb","renounceOwnership()":"715018a6","setBanned(address,bool)":"88c9bcce","setFeeBps(uint16)":"023b1fc9","setPaused(bool)":"16c38b3c","setTreasury(address)":"f0f44260","transferOwnership(address)":"f2fde38b"},"id":4}