{"abi":[{"type":"constructor","inputs":[{"name":"_creator","type":"address","internalType":"address"},{"name":"_factory","type":"address","internalType":"address"},{"name":"_goal","type":"uint256","internalType":"uint256"},{"name":"_deadline","type":"uint64","internalType":"uint64"},{"name":"_metadataURI","type":"string","internalType":"string"}],"stateMutability":"nonpayable"},{"type":"fallback","stateMutability":"payable"},{"type":"receive","stateMutability":"payable"},{"type":"function","name":"cancel","inputs":[],"outputs":[],"stateMutability":"nonpayable"},{"type":"function","name":"factory","inputs":[],"outputs":[{"name":"","type":"address","internalType":"address"}],"stateMutability":"view"},{"type":"function","name":"finalize","inputs":[],"outputs":[],"stateMutability":"nonpayable"},{"type":"function","name":"getSummary","inputs":[],"outputs":[{"name":"_creator","type":"address","internalType":"address"},{"name":"_goal","type":"uint256","internalType":"uint256"},{"name":"_deadline","type":"uint64","internalType":"uint64"},{"name":"_status","type":"uint8","internalType":"enum Campaign.Status"},{"name":"_totalPledged","type":"uint256","internalType":"uint256"}],"stateMutability":"view"},{"type":"function","name":"metadataURI","inputs":[],"outputs":[{"name":"","type":"string","internalType":"string"}],"stateMutability":"view"},{"type":"function","name":"pledge","inputs":[],"outputs":[],"stateMutability":"payable"},{"type":"function","name":"refund","inputs":[],"outputs":[],"stateMutability":"nonpayable"},{"type":"function","name":"unpledge","inputs":[{"name":"_amount","type":"uint256","internalType":"uint256"}],"outputs":[],"stateMutability":"nonpayable"},{"type":"event","name":"Cancelled","inputs":[],"anonymous":false},{"type":"event","name":"Finalized","inputs":[{"name":"success","type":"bool","indexed":false,"internalType":"bool"}],"anonymous":false},{"type":"event","name":"Pledged","inputs":[{"name":"backer","type":"address","indexed":true,"internalType":"address"},{"name":"amount","type":"uint256","indexed":false,"internalType":"uint256"}],"anonymous":false},{"type":"event","name":"Refunded","inputs":[{"name":"backer","type":"address","indexed":true,"internalType":"address"},{"name":"amount","type":"uint256","indexed":false,"internalType":"uint256"}],"anonymous":false},{"type":"event","name":"Unpledged","inputs":[{"name":"backer","type":"address","indexed":true,"internalType":"address"},{"name":"amount","type":"uint256","indexed":false,"internalType":"uint256"}],"anonymous":false},{"type":"error","name":"ReentrancyGuardReentrantCall","inputs":[]}],"bytecode":{"object":"0x60a0604052346103e55761101180380380610019816103e9565b92833981019060a0818303126103e5576100328161040e565b61003e6020830161040e565b604083015160608401516001600160401b03811694919391908590036103e5576080810151906001600160401b0382116103e5570185601f820112156103e5578051906001600160401b038211610296576100a2601f8301601f19166020016103e9565b96828852602083830101116103e557815f926020809301838a015e8701015260015f556001600160a01b031680156103a05782156103685742841115610334578451156102ef576001600160a01b038216156102aa57600180546001600160a01b031916919091179055608052600355600480546001600160481b0319169190911790555f60055580516001600160401b03811161029657600254600181811c9116801561028c575b602082101461027857601f8111610215575b50602091601f82116001146101b5579181925f926101aa575b50508160011b915f199060031b1c1916176002555b604051610bee9081610423823960805181818161030001526105bf0152f35b015190505f80610176565b601f1982169260025f52805f20915f5b8581106101fd575083600195106101e5575b505050811b0160025561018b565b01515f1960f88460031b161c191690555f80806101d7565b919260206001819286850151815501940192016101c5565b60025f527f405787fa12a823e0f2b7631cc41b3ba8828b3321ca811111fa75cd3aa3bb5ace601f830160051c8101916020841061026e575b601f0160051c01905b818110610263575061015d565b5f8155600101610256565b909150819061024d565b634e487b7160e01b5f52602260045260245ffd5b90607f169061014b565b634e487b7160e01b5f52604160045260245ffd5b60405162461bcd60e51b815260206004820152601360248201527f466163746f7279206973207265717569726564000000000000000000000000006044820152606490fd5b60405162461bcd60e51b815260206004820152601460248201527f494e56414c49445f4d455441444154415f5552490000000000000000000000006044820152606490fd5b60405162461bcd60e51b815260206004820152600c60248201526b4241445f444541444c494e4560a01b6044820152606490fd5b60405162461bcd60e51b815260206004820152601060248201526f11dbd85b081a5cc81c995c5d5a5c995960821b6044820152606490fd5b60405162461bcd60e51b815260206004820152601360248201527f43726561746f72206973207265717569726564000000000000000000000000006044820152606490fd5b5f80fd5b6040519190601f01601f191682016001600160401b0381118382101761029657604052565b51906001600160a01b03821682036103e55756fe608080604052600436101561001a575b5036610b6857610b68565b5f3560e01c90816303ee438c146108ab575080634051ddac1461084a5780634bb278f314610522578063590e1ae31461040657806388ffe8671461032f578063c45a0155146102eb578063c7258ba6146101985763ea8a1af01461007e575f61000f565b34610194575f366003190112610194576100a360018060a01b036001541633146109fb565b6100ab610b9a565b60ff60045460401c166004811015610180576101455760055461010a576803000000000000000060ff60401b1960045416176004557f63b958841f79ab97cb5456da181454b9932c0e15a3b17f1cbd27e2a8bc6104375f80a160015f55005b60405162461bcd60e51b815260206004820152601360248201527243414d504149474e5f4841535f504c4544474560681b6044820152606490fd5b60405162461bcd60e51b815260206004820152601360248201527243414d504149474e5f4e4f545f41435449564560681b6044820152606490fd5b634e487b7160e01b5f52602160045260245ffd5b5f80fd5b346101945760203660031901126101945760043560045460ff8160401c166004811015610180576101de916101d667ffffffffffffffff9215610ad7565b164210610b1c565b6101e6610b9a565b6101f1811515610a9f565b335f52600660205260405f205481116102b3575f8080836102158295600554610a92565b600555338252600660205261022e816040842054610a92565b338352600660205260408320556040518181527fefc8127cf8578e3bc03f4f8b964347cea522102e6484bb77bc4917b794817a6060203392a2335af1610272610a53565b501561027e5760015f55005b60405162461bcd60e51b815260206004820152600d60248201526c15539413115111d157d1905253609a1b6044820152606490fd5b60405162461bcd60e51b815260206004820152601060248201526f414d4f554e545f544f4f5f4c4152474560801b6044820152606490fd5b34610194575f366003190112610194576040517f00000000000000000000000000000000000000000000000000000000000000006001600160a01b03168152602090f35b5f3660031901126101945760045460ff8160401c16600481101561018057610364916101d667ffffffffffffffff9215610ad7565b61036c610b9a565b34156103cc57335f52600660205260405f20610389348254610b5b565b905561039734600554610b5b565b6005556040513481527f2726ce6e3b7987cbbb10c5a55b44725526c540fbba590cfc20afab691fa45edf60203392a260015f55005b60405162461bcd60e51b8152602060048201526012602482015271105b5bdd5b9d081a5cc81c995c5d5a5c995960721b6044820152606490fd5b34610194575f3660031901126101945761041e610b9a565b60ff60045460401c166004811015610180576002036104e757335f52600660205260405f205461044f811515610a9f565b61045b81600554610a92565b600555335f5260066020525f60408120555f80808084335af161047c610a53565b50156104b4576040519081527fd7dee2702d63ad89917b6a4da9981c90c4d24f8c2bdfd64c604ecae57d8d065160203392a260015f55005b60405162461bcd60e51b815260206004820152600b60248201526a14915195539117d190525360aa1b6044820152606490fd5b60405162461bcd60e51b815260206004820152601360248201527210d05354105251d397d393d517d19052531151606a1b6044820152606490fd5b34610194575f3660031901126101945761054760018060a01b036001541633146109fb565b67ffffffffffffffff60045416421061080e57610562610b9a565b600554600354116107c7576801000000000000000060ff60401b1960045416176004557f41493253ae80c9f89e25283c36f67849365d0515134ce43de1314223cb6f7342602060405160018152a16040516324a9d85360e01b81527f00000000000000000000000000000000000000000000000000000000000000006001600160a01b0316602082600481845afa91821561077c575f92610787575b506020600491604051928380926361d027b360e01b82525afa90811561077c575f9161073a575b50479161ffff168061070b57505f905b816106a1575b50506001545f918291829182916001600160a01b03165af161065b610a53565b5015610668575b60015f55005b60405162461bcd60e51b815260206004820152601160248201527010d491505513d497d611915497d1905253607a1b6044820152606490fd5b5f808084819460018060a01b03165af16106b9610a53565b50156106d6575f806106ce8194938294610a92565b93505061063b565b60405162461bcd60e51b815260206004820152600d60248201526c11915157d611915497d1905253609a1b6044820152606490fd5b80830290838204148315171561072657612710900490610635565b634e487b7160e01b5f52601160045260245ffd5b90506020813d602011610774575b81610755602093836109c5565b8101031261019457516001600160a01b03811681036101945782610625565b3d9150610748565b6040513d5f823e3d90fd5b9091506020813d6020116107bf575b816107a3602093836109c5565b81010312610194575161ffff81168103610194579060206105fe565b3d9150610796565b6802000000000000000060ff60401b1960045416176004557f41493253ae80c9f89e25283c36f67849365d0515134ce43de1314223cb6f734260206040515f8152a1610662565b60405162461bcd60e51b815260206004820152601460248201527321b0b6b830b4b3b71034b9903737ba1037bb32b960611b6044820152606490fd5b34610194575f3660031901126101945760018060a01b0360015416600354906004549167ffffffffffffffff60ff8460401c169360055492604051948552602085015216604083015260048310156101805760a09260608301526080820152f35b34610194575f366003190112610194575f90600254918260011c600184169384156109bb575b6020821085146109a757818452602084019490811561098c575060011461092e575b50906109038160409303826109c5565b8151928391602083525180918160208501528484015e5f828201840152601f01601f19168101030190f35b91905060025f527f405787fa12a823e0f2b7631cc41b3ba8828b3321ca811111fa75cd3aa3bb5ace915f905b808210610972575090915081016020016109036108f3565b91926001816020925483858801015201910190929161095a565b60ff1916855250151560051b820160200190506109036108f3565b634e487b7160e01b5f52602260045260245ffd5b90607f16906108d1565b90601f8019910116810190811067ffffffffffffffff8211176109e757604052565b634e487b7160e01b5f52604160045260245ffd5b15610a0257565b60405162461bcd60e51b815260206004820152602360248201527f4f6e6c792063726561746f722063616e2063616c6c20746869732066756e637460448201526234b7b760e91b6064820152608490fd5b3d15610a8d573d9067ffffffffffffffff82116109e75760405191610a82601f8201601f1916602001846109c5565b82523d5f602084013e565b606090565b9190820391821161072657565b15610aa657565b60405162461bcd60e51b81526020600482015260096024820152684e4f5f504c4544474560b81b6044820152606490fd5b15610ade57565b60405162461bcd60e51b815260206004820152601660248201527543616d706169676e206973206e6f742061637469766560501b6044820152606490fd5b15610b2357565b60405162461bcd60e51b815260206004820152601060248201526f21b0b6b830b4b3b71034b99037bb32b960811b6044820152606490fd5b9190820180921161072657565b60405162461bcd60e51b815260206004820152600a6024820152695553455f504c4544474560b01b6044820152606490fd5b60025f5414610ba95760025f55565b633ee5aeb560e01b5f5260045ffdfea2646970667358221220e9955a17d8641a12ec6a6de1e6b65a8b7679edf61c6c2db9824deea4bc7835eb64736f6c634300081e0033","linkReferences":{}},"methodIdentifiers":{"cancel()":"ea8a1af0","factory()":"c45a0155","finalize()":"4bb278f3","getSummary()":"4051ddac","metadataURI()":"03ee438c","pledge()":"88ffe867","refund()":"590e1ae3","unpledge(uint256)":"c7258ba6"},"id":3}