{"abi":[{"type":"constructor","inputs":[{"name":"_treasury","type":"address","internalType":"address"},{"name":"_feeBps","type":"uint16","internalType":"uint16"}],"stateMutability":"nonpayable"},{"type":"function","name":"bannedCreators","inputs":[{"name":"","type":"address","internalType":"address"}],"outputs":[{"name":"","type":"bool","internalType":"bool"}],"stateMutability":"view"},{"type":"function","name":"campaigns","inputs":[{"name":"","type":"uint256","internalType":"uint256"}],"outputs":[{"name":"","type":"address","internalType":"address"}],"stateMutability":"view"},{"type":"function","name":"campaignsLength","inputs":[],"outputs":[{"name":"","type":"uint256","internalType":"uint256"}],"stateMutability":"view"},{"type":"function","name":"createCampaign","inputs":[{"name":"goal","type":"uint256","internalType":"uint256"},{"name":"deadline","type":"uint64","internalType":"uint64"},{"name":"metadataURI","type":"string","internalType":"string"}],"outputs":[{"name":"campaign","type":"address","internalType":"address"}],"stateMutability":"nonpayable"},{"type":"function","name":"feeBps","inputs":[],"outputs":[{"name":"","type":"uint16","internalType":"uint16"}],"stateMutability":"view"},{"type":"function","name":"owner","inputs":[],"outputs":[{"name":"","type":"address","internalType":"address"}],"stateMutability":"view"},{"type":"function","name":"paused","inputs":[],"outputs":[{"name":"","type":"bool","internalType":"bool"}],"stateMutability":"view"},{"type":"function","name":"renounceOwnership","inputs":[],"outputs":[],"stateMutability":"nonpayable"},{"type":"function","name":"setBanned","inputs":[{"name":"creator","type":"address","internalType":"address"},{"name":"banned","type":"bool","internalType":"bool"}],"outputs":[],"stateMutability":"nonpayable"},{"type":"function","name":"setFeeBps","inputs":[{"name":"_bps","type":"uint16","internalType":"uint16"}],"outputs":[],"stateMutability":"nonpayable"},{"type":"function","name":"setPaused","inputs":[{"name":"_p","type":"bool","internalType":"bool"}],"outputs":[],"stateMutability":"nonpayable"},{"type":"function","name":"setTreasury","inputs":[{"name":"_treasury","type":"address","internalType":"address"}],"outputs":[],"stateMutability":"nonpayable"},{"type":"function","name":"transferOwnership","inputs":[{"name":"newOwner","type":"address","internalType":"address"}],"outputs":[],"stateMutability":"nonpayable"},{"type":"function","name":"treasury","inputs":[],"outputs":[{"name":"","type":"address","internalType":"address"}],"stateMutability":"view"},{"type":"event","name":"CampaignCreated","inputs":[{"name":"campaign","type":"address","indexed":false,"internalType":"address"},{"name":"creator","type":"address","indexed":true,"internalType":"address"},{"name":"id","type":"uint256","indexed":true,"internalType":"uint256"}],"anonymous":false},{"type":"event","name":"CreatorBanned","inputs":[{"name":"creator","type":"address","indexed":true,"internalType":"address"},{"name":"banned","type":"bool","indexed":false,"internalType":"bool"}],"anonymous":false},{"type":"event","name":"FeeBpsUpdated","inputs":[{"name":"oldFee","type":"uint16","indexed":false,"internalType":"uint16"},{"name":"newFee","type":"uint16","indexed":false,"internalType":"uint16"}],"anonymous":false},{"type":"event","name":"OwnershipTransferred","inputs":[{"name":"previousOwner","type":"address","indexed":true,"internalType":"address"},{"name":"newOwner","type":"address","indexed":true,"internalType":"address"}],"anonymous":false},{"type":"event","name":"Paused","inputs":[{"name":"paused","type":"bool","indexed":false,"internalType":"bool"}],"anonymous":false},{"type":"event","name":"TreasuryUpdated","inputs":[{"name":"oldTreasury","type":"address","indexed":false,"internalType":"address"},{"name":"newTreasury","type":"address","indexed":false,"internalType":"address"}],"anonymous":false},{"type":"error","name":"OwnableInvalidOwner","inputs":[{"name":"owner","type":"address","internalType":"address"}]},{"type":"error","name":"OwnableUnauthorizedAccount","inputs":[{"name":"account","type":"address","internalType":"address"}]}],"bytecode":{"object":"0x60803461016857601f611b3238819003918201601f19168301916001600160401b0383118484101761016c5780849260409485528339810103126101685780516001600160a01b038116919082900361016857602001519061ffff8216808303610168573315610155575f8054336001600160a01b03198216811783556040519290916001600160a01b0316907f8be0079c531659141344cd1fd0a4f28419497f9722a3daafe3b4186f6b6457e09080a382156101205750612710106100ec576001549161ffff60a01b9060a01b169160018060b01b03191617176001556040516119b190816101818239f35b60405162461bcd60e51b815260206004820152600c60248201526b08c8a8abea89e9ebe90928e960a31b6044820152606490fd5b62461bcd60e51b815260206004820152601060248201526f494e56414c49445f545245415355525960801b6044820152606490fd5b631e4fbdf760e01b5f525f60045260245ffd5b5f80fd5b634e487b7160e01b5f52604160045260245ffdfe6080806040526004361015610012575f80fd5b5f3560e01c9081630133ea5c146107ef57508063023b1fc914610732578063141961bc146106f057806316c38b3c1461068e57806324a9d8531461066a5780635706ae93146103575780635c975abb146103355780635f3179c31461031857806361d027b3146102f0578063715018a61461029957806388c9bcce1461021c5780638da5cb5b146101f5578063f0f442601461013f5763f2fde38b146100b6575f80fd5b3461013b57602036600319011261013b576100cf610828565b6100d761086a565b6001600160a01b03168015610128575f80546001600160a01b03198116831782556001600160a01b0316907f8be0079c531659141344cd1fd0a4f28419497f9722a3daafe3b4186f6b6457e09080a3005b631e4fbdf760e01b5f525f60045260245ffd5b5f80fd5b3461013b57602036600319011261013b57610158610828565b61016061086a565b6001600160a01b031680156101bd57600154604080516001600160a01b0383168152602081018490527f4ab5be82436d353e61ca18726e984e561f5c1cc7c6d38b29d2553c790434705a9190a16001600160a01b03191617600155005b60405162461bcd60e51b815260206004820152601060248201526f494e56414c49445f545245415355525960801b6044820152606490fd5b3461013b575f36600319011261013b575f546040516001600160a01b039091168152602090f35b3461013b57604036600319011261013b57610235610828565b6024359081151580920361013b5760207f1284e03566d6e822d93d81be615cab25664ae5881187917447954596cfd812c89161026f61086a565b60018060a01b031692835f526004825260405f2060ff1981541660ff8316179055604051908152a2005b3461013b575f36600319011261013b576102b161086a565b5f80546001600160a01b0319811682556001600160a01b03167f8be0079c531659141344cd1fd0a4f28419497f9722a3daafe3b4186f6b6457e08280a3005b3461013b575f36600319011261013b576001546040516001600160a01b039091168152602090f35b3461013b575f36600319011261013b576020600254604051908152f35b3461013b575f36600319011261013b57602060ff600354166040519015158152f35b3461013b57606036600319011261013b576004356024359067ffffffffffffffff821680920361013b576044359167ffffffffffffffff831161013b573660238401121561013b5782600401359067ffffffffffffffff821161053f5760405191601f8101601f19908116603f0116830167ffffffffffffffff81118482101761053f576040528083526020830194366024838301011161013b57815f9260246020930188378401015260ff6003541661063c57335f52600460205260ff60405f2054166106065782156105d2574281111561059a5781511561055e57604051936110eb928386019286841067ffffffffffffffff85111761053f5760c095879561089187393385523060208601526040850152606084015260a060808401525180918160a08501528584015e5f848284010152601f8019910116010301905ff080156105535760018060a01b03166002546801000000000000000081101561053f578060016104ca920160025561083e565b81546001600160a01b0360039290921b91821b19169083901b1790556002545f1981019190821161052b576020916040518281527fc5099b671a0e7e75b6a5d731232dc609f91567fd0a1fb5921f49ee14d60a13b9843392a3604051908152f35b634e487b7160e01b5f52601160045260245ffd5b634e487b7160e01b5f52604160045260245ffd5b6040513d5f823e3d90fd5b60405162461bcd60e51b8152602060048201526014602482015273494e56414c49445f4d455441444154415f55524960601b6044820152606490fd5b60405162461bcd60e51b815260206004820152601060248201526f494e56414c49445f444541444c494e4560801b6044820152606490fd5b60405162461bcd60e51b815260206004820152600c60248201526b1253959053125117d1d3d05360a21b6044820152606490fd5b60405162461bcd60e51b815260206004820152600e60248201526d10d491505513d497d0905393915160921b6044820152606490fd5b60405162461bcd60e51b815260206004820152600660248201526514105554d15160d21b6044820152606490fd5b3461013b575f36600319011261013b57602061ffff60015460a01c16604051908152f35b3461013b57602036600319011261013b5760043580151580910361013b5760207f0e2fb031ee032dc02d8011dc50b816eb450cf856abd8261680dac74f72165bd2916106d861086a565b60ff196003541660ff821617600355604051908152a1005b3461013b57602036600319011261013b5760043560025481101561013b5761071960209161083e565b905460405160039290921b1c6001600160a01b03168152f35b3461013b57602036600319011261013b5760043561ffff81169081810361013b5761075b61086a565b61271082116107bb577f8d10f5697a370f640ed5d474159aba3cc86e9bc260a5e9d2db875ad992cb1a1f60406001549381519061ffff8660a01c1682526020820152a161ffff60a01b1990911660a09190911b61ffff60a01b1617600155005b60405162461bcd60e51b815260206004820152600c60248201526b08c8a8abea89e9ebe90928e960a31b6044820152606490fd5b3461013b57602036600319011261013b576020906001600160a01b03610813610828565b165f526004825260ff60405f20541615158152f35b600435906001600160a01b038216820361013b57565b6002548110156108565760025f5260205f2001905f90565b634e487b7160e01b5f52603260045260245ffd5b5f546001600160a01b0316330361087d57565b63118cdaa760e01b5f523360045260245ffdfe60a0604052346103e5576110eb80380380610019816103e9565b92833981019060a0818303126103e5576100328161040e565b61003e6020830161040e565b604083015160608401516001600160401b03811694919391908590036103e5576080810151906001600160401b0382116103e5570185601f820112156103e5578051906001600160401b038211610296576100a2601f8301601f19166020016103e9565b96828852602083830101116103e557815f926020809301838a015e8701015260015f556001600160a01b031680156103a05782156103685742841115610334578451156102ef576001600160a01b038216156102aa57600180546001600160a01b031916919091179055608052600355600480546001600160481b0319169190911790555f60055580516001600160401b03811161029657600254600181811c9116801561028c575b602082101461027857601f8111610215575b50602091601f82116001146101b5579181925f926101aa575b50508160011b915f199060031b1c1916176002555b604051610cc89081610423823960805181818161037901526106400152f35b015190505f80610176565b601f1982169260025f52805f20915f5b8581106101fd575083600195106101e5575b505050811b0160025561018b565b01515f1960f88460031b161c191690555f80806101d7565b919260206001819286850151815501940192016101c5565b60025f527f405787fa12a823e0f2b7631cc41b3ba8828b3321ca811111fa75cd3aa3bb5ace601f830160051c8101916020841061026e575b601f0160051c01905b818110610263575061015d565b5f8155600101610256565b909150819061024d565b634e487b7160e01b5f52602260045260245ffd5b90607f169061014b565b634e487b7160e01b5f52604160045260245ffd5b60405162461bcd60e51b815260206004820152601360248201527f466163746f7279206973207265717569726564000000000000000000000000006044820152606490fd5b60405162461bcd60e51b815260206004820152601460248201527f494e56414c49445f4d455441444154415f5552490000000000000000000000006044820152606490fd5b60405162461bcd60e51b815260206004820152600c60248201526b4241445f444541444c494e4560a01b6044820152606490fd5b60405162461bcd60e51b815260206004820152601060248201526f11dbd85b081a5cc81c995c5d5a5c995960821b6044820152606490fd5b60405162461bcd60e51b815260206004820152601360248201527f43726561746f72206973207265717569726564000000000000000000000000006044820152606490fd5b5f80fd5b6040519190601f01601f191682016001600160401b0381118382101761029657604052565b51906001600160a01b03821682036103e55756fe608080604052600436101561001a575b5036610c4257610c42565b5f3560e01c90816303ee438c146109d057508063200d2ed2146109a657806329dcb0cf1461097f578063343576f51461094357806340193883146109265780634051ddac146108cb5780634bb278f3146105b857806355468ba41461059b578063590e1ae31461047f57806388ffe867146103a8578063c45a015514610364578063c7258ba6146102115763ea8a1af0146100b5575f61000f565b3461020d575f36600319011261020d576001546001600160a01b031633036101bc5760ff60045460401c1660048110156101a85761016d57600554610132576803000000000000000060ff60401b1960045416176004557f63b958841f79ab97cb5456da181454b9932c0e15a3b17f1cbd27e2a8bc6104375f80a1005b60405162461bcd60e51b815260206004820152601360248201527243414d504149474e5f4841535f504c4544474560681b6044820152606490fd5b60405162461bcd60e51b815260206004820152601360248201527243414d504149474e5f4e4f545f41435449564560681b6044820152606490fd5b634e487b7160e01b5f52602160045260245ffd5b60405162461bcd60e51b815260206004820152602360248201527f4f6e6c792063726561746f722063616e2063616c6c20746869732066756e637460448201526234b7b760e91b6064820152608490fd5b5f80fd5b3461020d57602036600319011261020d5760043560045460ff8160401c1660048110156101a8576102579161024f67ffffffffffffffff9215610bb1565b164210610bf6565b61025f610c74565b61026a811515610b79565b335f52600660205260405f2054811161032c575f80808361028e8295600554610b6c565b60055533825260066020526102a7816040842054610b6c565b338352600660205260408320556040518181527fefc8127cf8578e3bc03f4f8b964347cea522102e6484bb77bc4917b794817a6060203392a2335af16102eb610b2d565b50156102f75760015f55005b60405162461bcd60e51b815260206004820152600d60248201526c15539413115111d157d1905253609a1b6044820152606490fd5b60405162461bcd60e51b815260206004820152601060248201526f414d4f554e545f544f4f5f4c4152474560801b6044820152606490fd5b3461020d575f36600319011261020d576040517f00000000000000000000000000000000000000000000000000000000000000006001600160a01b03168152602090f35b5f36600319011261020d5760045460ff8160401c1660048110156101a8576103dd9161024f67ffffffffffffffff9215610bb1565b6103e5610c74565b341561044557335f52600660205260405f20610402348254610c35565b905561041034600554610c35565b6005556040513481527f2726ce6e3b7987cbbb10c5a55b44725526c540fbba590cfc20afab691fa45edf60203392a260015f55005b60405162461bcd60e51b8152602060048201526012602482015271105b5bdd5b9d081a5cc81c995c5d5a5c995960721b6044820152606490fd5b3461020d575f36600319011261020d57610497610c74565b60ff60045460401c1660048110156101a85760020361056057335f52600660205260405f20546104c8811515610b79565b6104d481600554610b6c565b600555335f5260066020525f60408120555f80808084335af16104f5610b2d565b501561052d576040519081527fd7dee2702d63ad89917b6a4da9981c90c4d24f8c2bdfd64c604ecae57d8d065160203392a260015f55005b60405162461bcd60e51b815260206004820152600b60248201526a14915195539117d190525360aa1b6044820152606490fd5b60405162461bcd60e51b815260206004820152601360248201527210d05354105251d397d393d517d19052531151606a1b6044820152606490fd5b3461020d575f36600319011261020d576020600554604051908152f35b3461020d575f36600319011261020d5767ffffffffffffffff60045416421061088f576105e3610c74565b60055460035411610848576801000000000000000060ff60401b1960045416176004557f41493253ae80c9f89e25283c36f67849365d0515134ce43de1314223cb6f7342602060405160018152a16040516324a9d85360e01b81527f00000000000000000000000000000000000000000000000000000000000000006001600160a01b0316602082600481845afa9182156107fd575f92610808575b506020600491604051928380926361d027b360e01b82525afa9081156107fd575f916107bb575b50479161ffff168061078c57505f905b81610722575b50506001545f918291829182916001600160a01b03165af16106dc610b2d565b50156106e9575b60015f55005b60405162461bcd60e51b815260206004820152601160248201527010d491505513d497d611915497d1905253607a1b6044820152606490fd5b5f808084819460018060a01b03165af161073a610b2d565b5015610757575f8061074f8194938294610b6c565b9350506106bc565b60405162461bcd60e51b815260206004820152600d60248201526c11915157d611915497d1905253609a1b6044820152606490fd5b8083029083820414831517156107a7576127109004906106b6565b634e487b7160e01b5f52601160045260245ffd5b90506020813d6020116107f5575b816107d660209383610aea565b8101031261020d57516001600160a01b038116810361020d57826106a6565b3d91506107c9565b6040513d5f823e3d90fd5b9091506020813d602011610840575b8161082460209383610aea565b8101031261020d575161ffff8116810361020d5790602061067f565b3d9150610817565b6802000000000000000060ff60401b1960045416176004557f41493253ae80c9f89e25283c36f67849365d0515134ce43de1314223cb6f734260206040515f8152a16106e3565b60405162461bcd60e51b815260206004820152601460248201527321b0b6b830b4b3b71034b9903737ba1037bb32b960611b6044820152606490fd5b3461020d575f36600319011261020d5760a0600180821b036001541660035461091f60045460055492604051948552602085015267ffffffffffffffff8116604085015260ff606085019160401c16610b20565b6080820152f35b3461020d575f36600319011261020d576020600354604051908152f35b3461020d57602036600319011261020d576004356001600160a01b0381169081900361020d575f526006602052602060405f2054604051908152f35b3461020d575f36600319011261020d57602067ffffffffffffffff60045416604051908152f35b3461020d575f36600319011261020d57602060ff60045460401c166109ce6040518092610b20565bf35b3461020d575f36600319011261020d575f90600254918260011c60018416938415610ae0575b602082108514610acc578184526020840194908115610ab15750600114610a53575b5090610a28816040930382610aea565b8151928391602083525180918160208501528484015e5f828201840152601f01601f19168101030190f35b91905060025f527f405787fa12a823e0f2b7631cc41b3ba8828b3321ca811111fa75cd3aa3bb5ace915f905b808210610a9757509091508101602001610a28610a18565b919260018160209254838588010152019101909291610a7f565b60ff1916855250151560051b82016020019050610a28610a18565b634e487b7160e01b5f52602260045260245ffd5b90607f16906109f6565b90601f8019910116810190811067ffffffffffffffff821117610b0c57604052565b634e487b7160e01b5f52604160045260245ffd5b9060048210156101a85752565b3d15610b67573d9067ffffffffffffffff8211610b0c5760405191610b5c601f8201601f191660200184610aea565b82523d5f602084013e565b606090565b919082039182116107a757565b15610b8057565b60405162461bcd60e51b81526020600482015260096024820152684e4f5f504c4544474560b81b6044820152606490fd5b15610bb857565b60405162461bcd60e51b815260206004820152601660248201527543616d706169676e206973206e6f742061637469766560501b6044820152606490fd5b15610bfd57565b60405162461bcd60e51b815260206004820152601060248201526f21b0b6b830b4b3b71034b99037bb32b960811b6044820152606490fd5b919082018092116107a757565b60405162461bcd60e51b815260206004820152600a6024820152695553455f504c4544474560b01b6044820152606490fd5b60025f5414610c835760025f55565b633ee5aeb560e01b5f5260045ffdfea2646970667358221220b8d7b17957c473bcf3132014d93bf8eb1767131ded16f32ec2368878edb9930864736f6c634300081e0033a2646970667358221220016cfecc878c9e9c4b794e411534876c907d1d576f098b8f43742593c9c2e63664736f6c634300081e0033","linkReferences":{}},"methodIdentifiers":{"bannedCreators(address)":"0133ea5c","campaigns(uint256)":"141961bc","campaignsLength()":"5f3179c3","createCampaign(uint256,uint64,string)":"5706ae93","feeBps()":"24a9d853","owner()":"8da5cb5b","paused()":"5c975abb","renounceOwnership()":"715018a6","setBanned(address,bool)":"88c9bcce","setFeeBps(uint16)":"023b1fc9","setPaused(bool)":"16c38b3c","setTreasury(address)":"f0f44260","transferOwnership(address)":"f2fde38b","treasury()":"61d027b3"},"id":20}