{"abi":[{"type":"constructor","inputs":[{"name":"_treasury","type":"address","internalType":"address"},{"name":"_feeBps","type":"uint16","internalType":"uint16"}],"stateMutability":"nonpayable"},{"type":"function","name":"bannedCreators","inputs":[{"name":"","type":"address","internalType":"address"}],"outputs":[{"name":"","type":"bool","internalType":"bool"}],"stateMutability":"view"},{"type":"function","name":"campaigns","inputs":[{"name":"","type":"uint256","internalType":"uint256"}],"outputs":[{"name":"","type":"address","internalType":"address"}],"stateMutability":"view"},{"type":"function","name":"campaignsLength","inputs":[],"outputs":[{"name":"","type":"uint256","internalType":"uint256"}],"stateMutability":"view"},{"type":"function","name":"createCampaign","inputs":[{"name":"goal","type":"uint256","internalType":"uint256"},{"name":"deadline","type":"uint64","internalType":"uint64"},{"name":"metadataURI","type":"string","internalType":"string"}],"outputs":[{"name":"campaign","type":"address","internalType":"address"}],"stateMutability":"nonpayable"},{"type":"function","name":"feeBps","inputs":[],"outputs":[{"name":"","type":"uint16","internalType":"uint16"}],"stateMutability":"view"},{"type":"function","name":"getUserCampaigns","inputs":[{"name":"user","type":"address","internalType":"address"}],"outputs":[{"name":"","type":"address[]","internalType":"address[]"}],"stateMutability":"view"},{"type":"function","name":"owner","inputs":[],"outputs":[{"name":"","type":"address","internalType":"address"}],"stateMutability":"view"},{"type":"function","name":"paused","inputs":[],"outputs":[{"name":"","type":"bool","internalType":"bool"}],"stateMutability":"view"},{"type":"function","name":"renounceOwnership","inputs":[],"outputs":[],"stateMutability":"nonpayable"},{"type":"function","name":"setBanned","inputs":[{"name":"creator","type":"address","internalType":"address"},{"name":"banned","type":"bool","internalType":"bool"}],"outputs":[],"stateMutability":"nonpayable"},{"type":"function","name":"setFeeBps","inputs":[{"name":"_bps","type":"uint16","internalType":"uint16"}],"outputs":[],"stateMutability":"nonpayable"},{"type":"function","name":"setPaused","inputs":[{"name":"_p","type":"bool","internalType":"bool"}],"outputs":[],"stateMutability":"nonpayable"},{"type":"function","name":"setTreasury","inputs":[{"name":"_treasury","type":"address","internalType":"address"}],"outputs":[],"stateMutability":"nonpayable"},{"type":"function","name":"transferOwnership","inputs":[{"name":"newOwner","type":"address","internalType":"address"}],"outputs":[],"stateMutability":"nonpayable"},{"type":"function","name":"treasury","inputs":[],"outputs":[{"name":"","type":"address","internalType":"address"}],"stateMutability":"view"},{"type":"function","name":"userCampaigns","inputs":[{"name":"","type":"address","internalType":"address"},{"name":"","type":"uint256","internalType":"uint256"}],"outputs":[{"name":"","type":"address","internalType":"address"}],"stateMutability":"view"},{"type":"event","name":"CampaignCreated","inputs":[{"name":"campaign","type":"address","indexed":false,"internalType":"address"},{"name":"creator","type":"address","indexed":true,"internalType":"address"},{"name":"id","type":"uint256","indexed":true,"internalType":"uint256"}],"anonymous":false},{"type":"event","name":"CreatorBanned","inputs":[{"name":"creator","type":"address","indexed":true,"internalType":"address"},{"name":"banned","type":"bool","indexed":false,"internalType":"bool"}],"anonymous":false},{"type":"event","name":"FeeBpsUpdated","inputs":[{"name":"oldFee","type":"uint16","indexed":false,"internalType":"uint16"},{"name":"newFee","type":"uint16","indexed":false,"internalType":"uint16"}],"anonymous":false},{"type":"event","name":"OwnershipTransferred","inputs":[{"name":"previousOwner","type":"address","indexed":true,"internalType":"address"},{"name":"newOwner","type":"address","indexed":true,"internalType":"address"}],"anonymous":false},{"type":"event","name":"Paused","inputs":[{"name":"paused","type":"bool","indexed":false,"internalType":"bool"}],"anonymous":false},{"type":"event","name":"TreasuryUpdated","inputs":[{"name":"oldTreasury","type":"address","indexed":false,"internalType":"address"},{"name":"newTreasury","type":"address","indexed":false,"internalType":"address"}],"anonymous":false},{"type":"error","name":"OwnableInvalidOwner","inputs":[{"name":"owner","type":"address","internalType":"address"}]},{"type":"error","name":"OwnableUnauthorizedAccount","inputs":[{"name":"account","type":"address","internalType":"address"}]}],"bytecode":{"object":"0x60803461016857601f6122bd38819003918201601f19168301916001600160401b0383118484101761016c5780849260409485528339810103126101685780516001600160a01b038116919082900361016857602001519061ffff8216808303610168573315610155575f8054336001600160a01b03198216811783556040519290916001600160a01b0316907f8be0079c531659141344cd1fd0a4f28419497f9722a3daafe3b4186f6b6457e09080a382156101205750612710106100ec576001549161ffff60a01b9060a01b169160018060b01b031916171760015560405161213c90816101818239f35b60405162461bcd60e51b815260206004820152600c60248201526b08c8a8abea89e9ebe90928e960a31b6044820152606490fd5b62461bcd60e51b815260206004820152601060248201526f494e56414c49445f545245415355525960801b6044820152606490fd5b631e4fbdf760e01b5f525f60045260245ffd5b5f80fd5b634e487b7160e01b5f52604160045260245ffdfe6080806040526004361015610012575f80fd5b5f3560e01c9081630133ea5c146109a057508063023b1fc9146108e3578063141961bc1461086b57806316c38b3c146107ff57806319ac74bd1461079d57806324a9d853146107795780635706ae93146104365780635c975abb146104115780635f3179c3146103f457806361d027b3146103cc578063715018a61461037557806388c9bcce146102f85780638da5cb5b146102d1578063a1e5084c1461020b578063f0f44260146101555763f2fde38b146100cc575f80fd5b34610151576020366003190112610151576100e56109d9565b6100ed610a26565b6001600160a01b0316801561013e575f80546001600160a01b03198116831782556001600160a01b0316907f8be0079c531659141344cd1fd0a4f28419497f9722a3daafe3b4186f6b6457e09080a3005b631e4fbdf760e01b5f525f60045260245ffd5b5f80fd5b346101515760203660031901126101515761016e6109d9565b610176610a26565b6001600160a01b031680156101d357600154604080516001600160a01b0383168152602081018490527f4ab5be82436d353e61ca18726e984e561f5c1cc7c6d38b29d2553c790434705a9190a16001600160a01b03191617600155005b60405162461bcd60e51b815260206004820152601060248201526f494e56414c49445f545245415355525960801b6044820152606490fd5b34610151576020366003190112610151576001600160a01b0361022c6109d9565b165f52600460205260405f20604051806020835491828152019081935f5260205f20905f5b8181106102b25750505081610267910382610a04565b604051918291602083019060208452518091526040830191905f5b818110610290575050500390f35b82516001600160a01b0316845285945060209384019390920191600101610282565b82546001600160a01b0316845260209093019260019283019201610251565b34610151575f366003190112610151575f546040516001600160a01b039091168152602090f35b34610151576040366003190112610151576103116109d9565b602435908115158092036101515760207f1284e03566d6e822d93d81be615cab25664ae5881187917447954596cfd812c89161034b610a26565b60018060a01b031692835f526003825260405f2060ff1981541660ff8316179055604051908152a2005b34610151575f3660031901126101515761038d610a26565b5f80546001600160a01b0319811682556001600160a01b03167f8be0079c531659141344cd1fd0a4f28419497f9722a3daafe3b4186f6b6457e08280a3005b34610151575f366003190112610151576001546040516001600160a01b039091168152602090f35b34610151575f366003190112610151576020600254604051908152f35b34610151575f36600319011261015157602060ff60015460b01c166040519015158152f35b34610151576060366003190112610151576004356024359067ffffffffffffffff8216809203610151576044359167ffffffffffffffff831161015157366023840112156101515782600401359067ffffffffffffffff821161064e57604051916104ab601f8201601f191660200184610a04565b8083526020830194366024838301011161015157815f9260246020930188378401015260ff60015460b01c1661074b57335f52600360205260ff60405f2054166107155782156106e157428111156106a95781511561066d57604051936116ba928386019286841067ffffffffffffffff85111761064e5760c0958795610a4d87393385523060208601526040850152606084015260a060808401525180918160a08501528584015e5f848284010152601f8019910116010301905ff080156106625760018060a01b0316600254600160401b81101561064e57806001610597920160025560026109ef565b81549060031b9083821b9160018060a01b03901b1916179055335f52600460205260405f208054600160401b81101561064e576105d9916001820181556109ef565b81546001600160a01b0360039290921b91821b19169083901b1790556002545f1981019190821161063a576020916040518281527fc5099b671a0e7e75b6a5d731232dc609f91567fd0a1fb5921f49ee14d60a13b9843392a3604051908152f35b634e487b7160e01b5f52601160045260245ffd5b634e487b7160e01b5f52604160045260245ffd5b6040513d5f823e3d90fd5b60405162461bcd60e51b8152602060048201526014602482015273494e56414c49445f4d455441444154415f55524960601b6044820152606490fd5b60405162461bcd60e51b815260206004820152601060248201526f494e56414c49445f444541444c494e4560801b6044820152606490fd5b60405162461bcd60e51b815260206004820152600c60248201526b1253959053125117d1d3d05360a21b6044820152606490fd5b60405162461bcd60e51b815260206004820152600e60248201526d10d491505513d497d0905393915160921b6044820152606490fd5b60405162461bcd60e51b815260206004820152600660248201526514105554d15160d21b6044820152606490fd5b34610151575f36600319011261015157602061ffff60015460a01c16604051908152f35b34610151576040366003190112610151576107b66109d9565b6001600160a01b03165f90815260046020526040902080546024359190821015610151576020916107e6916109ef565b905460405160039290921b1c6001600160a01b03168152f35b34610151576020366003190112610151576004358015158091036101515760207f0e2fb031ee032dc02d8011dc50b816eb450cf856abd8261680dac74f72165bd291610849610a26565b6001805460ff60b01b191660b083901b60ff60b01b16179055604051908152a1005b3461015157602036600319011261015157600435600254811015610151576002548110156108cf5760025f527f405787fa12a823e0f2b7631cc41b3ba8828b3321ca811111fa75cd3aa3bb5ace01546040516001600160a01b039091168152602090f35b634e487b7160e01b5f52603260045260245ffd5b346101515760203660031901126101515760043561ffff8116908181036101515761090c610a26565b612710821161096c577f8d10f5697a370f640ed5d474159aba3cc86e9bc260a5e9d2db875ad992cb1a1f60406001549381519061ffff8660a01c1682526020820152a161ffff60a01b1990911660a09190911b61ffff60a01b1617600155005b60405162461bcd60e51b815260206004820152600c60248201526b08c8a8abea89e9ebe90928e960a31b6044820152606490fd5b34610151576020366003190112610151576020906001600160a01b036109c46109d9565b165f526003825260ff60405f20541615158152f35b600435906001600160a01b038216820361015157565b80548210156108cf575f5260205f2001905f90565b90601f8019910116810190811067ffffffffffffffff82111761064e57604052565b5f546001600160a01b03163303610a3957565b63118cdaa760e01b5f523360045260245ffdfe60c060405234610414576116ba8038038061001981610418565b92833981019060a081830312610414576100328161043d565b61003e6020830161043d565b604083015160608401516001600160401b0381169491939190859003610414576080810151906001600160401b038211610414570185601f82011215610414578051906001600160401b0382116102c5576100a2601f8301601f1916602001610418565b968288526020838301011161041457815f926020809301838a015e8701015260015f556001600160a01b038116156103cf57821561039757428411156103635784511561031e576001600160a01b038216156102d95760805260a052600255600380546001600160481b0319169190911790555f60045580516001600160401b0381116102c557600154600181811c911680156102bb575b60208210146102a757601f8111610244575b50602091601f82116001146101e4579181925f926101d9575b50508160011b915f199060031b1c1916176001555b6040516112689081610452823960805181818160d20152818161083f01528181610bd901528181610d5d0152610edc015260a05181818161029a01528181610438015281816104b1015281816107b701528181610b510152610dbc0152f35b015190505f80610165565b601f1982169260015f52805f20915f5b85811061022c57508360019510610214575b505050811b0160015561017a565b01515f1960f88460031b161c191690555f8080610206565b919260206001819286850151815501940192016101f4565b60015f527fb10e2d527612073b26eecdfd717e6a320cf44b4afac2b0732d9fcbe2b7fa0cf6601f830160051c8101916020841061029d575b601f0160051c01905b818110610292575061014c565b5f8155600101610285565b909150819061027c565b634e487b7160e01b5f52602260045260245ffd5b90607f169061013a565b634e487b7160e01b5f52604160045260245ffd5b60405162461bcd60e51b815260206004820152601360248201527f466163746f7279206973207265717569726564000000000000000000000000006044820152606490fd5b60405162461bcd60e51b815260206004820152601460248201527f494e56414c49445f4d455441444154415f5552490000000000000000000000006044820152606490fd5b60405162461bcd60e51b815260206004820152600c60248201526b4241445f444541444c494e4560a01b6044820152606490fd5b60405162461bcd60e51b815260206004820152601060248201526f11dbd85b081a5cc81c995c5d5a5c995960821b6044820152606490fd5b60405162461bcd60e51b815260206004820152601360248201527f43726561746f72206973207265717569726564000000000000000000000000006044820152606490fd5b5f80fd5b6040519190601f01601f191682016001600160401b038111838210176102c557604052565b51906001600160a01b03821682036104145756fe608080604052600436101561001a575b50366111e2576111e2565b5f3560e01c90816302d05d3f14610eca5750806303ee438c14610e97578063200d2ed214610e6d57806329dcb0cf14610e46578063343576f514610e0a5780634019388314610ded5780634051ddac14610d255780634bb278f314610a7a57806355468ba414610a5d578063590e1ae3146105b357806388ffe86714610467578063c45a015514610423578063c7258ba61461023f5763ea8a1af0146100c0575f61000f565b3461023b575f36600319011261023b577f00000000000000000000000000000000000000000000000000000000000000006001600160a01b031633036101ea5760ff60035460401c1660048110156101d65761011c90156110fc565b60045461019b576803000000000000000060ff60401b1960035416176003557fafa725e7f44cadb687a7043853fa1a7e7b8f0da74ce87ec546e9420f04da8c1e602060ff60035460401c166101746040518092611047565ba17f63b958841f79ab97cb5456da181454b9932c0e15a3b17f1cbd27e2a8bc6104375f80a1005b60405162461bcd60e51b815260206004820152601360248201527243414d504149474e5f4841535f504c4544474560681b6044820152606490fd5b634e487b7160e01b5f52602160045260245ffd5b60405162461bcd60e51b815260206004820152602360248201527f4f6e6c792063726561746f722063616e2063616c6c20746869732066756e637460448201526234b7b760e91b6064820152608490fd5b5f80fd5b3461023b57602036600319011261023b5760043560035460ff8160401c1660048110156101d6576102859161027d67ffffffffffffffff92156110fc565b164210611141565b604051635c975abb60e01b81526020816004817f00000000000000000000000000000000000000000000000000000000000000006001600160a01b03165afa8015610418576102dc915f916103e9575b5015611198565b6102e4611214565b6102ef8115156110c4565b335f52600560205260405f205481116103b15761030e816004546110b7565b600455335f5260056020526103278160405f20546110b7565b335f52600560205260405f20555f80808084335af1610344611078565b501561037c576040519081527fefc8127cf8578e3bc03f4f8b964347cea522102e6484bb77bc4917b794817a6060203392a260015f55005b60405162461bcd60e51b815260206004820152600d60248201526c15539413115111d157d1905253609a1b6044820152606490fd5b60405162461bcd60e51b815260206004820152601060248201526f414d4f554e545f544f4f5f4c4152474560801b6044820152606490fd5b61040b915060203d602011610411575b6104038183610f0b565b810190611180565b836102d5565b503d6103f9565b6040513d5f823e3d90fd5b3461023b575f36600319011261023b576040517f00000000000000000000000000000000000000000000000000000000000000006001600160a01b03168152602090f35b5f36600319011261023b5760035460ff8160401c1660048110156101d65761049c9161027d67ffffffffffffffff92156110fc565b604051635c975abb60e01b81526020816004817f00000000000000000000000000000000000000000000000000000000000000006001600160a01b03165afa8015610418576104f2915f91610594575015611198565b6104fa611214565b341561055a57335f52600560205260405f206105173482546111d5565b9055610525346004546111d5565b6004556040513481527f2726ce6e3b7987cbbb10c5a55b44725526c540fbba590cfc20afab691fa45edf60203392a260015f55005b60405162461bcd60e51b8152602060048201526012602482015271105b5bdd5b9d081a5cc81c995c5d5a5c995960721b6044820152606490fd5b6105ad915060203d602011610411576104038183610f0b565b826102d5565b3461023b575f36600319011261023b576105cb611214565b60035460ff8160401c1660048110156101d6571580610a49575b6106ef575b5060ff60035460401c1660048110156101d6576002036106b457335f52600560205260405f205461061c8115156110c4565b610628816004546110b7565b600455335f5260056020525f60408120555f80808084335af1610649611078565b5015610681576040519081527fd7dee2702d63ad89917b6a4da9981c90c4d24f8c2bdfd64c604ecae57d8d065160203392a260015f55005b60405162461bcd60e51b815260206004820152600b60248201526a14915195539117d190525360aa1b6044820152606490fd5b60405162461bcd60e51b815260206004820152601360248201527210d05354105251d397d393d517d19052531151606a1b6044820152606490fd5b67ffffffffffffffff164210610a0d57610707611214565b60ff60035460401c1660048110156101d6576109d457600454600254118015906109ca576107356001611054565b7f41493253ae80c9f89e25283c36f67849365d0515134ce43de1314223cb6f73426020604051838152a17fafa725e7f44cadb687a7043853fa1a7e7b8f0da74ce87ec546e9420f04da8c1e602060ff60035460401c166107986040518092611047565ba16107a8575b60015f55806105ea565b6040516324a9d85360e01b81527f00000000000000000000000000000000000000000000000000000000000000006001600160a01b0316602082600481845afa918215610418575f9261098a575b506020600491604051928380926361d027b360e01b82525afa908115610418575f91610948575b50479161ffff168061091957505f905b816108af575b505f91829150819081907f00000000000000000000000000000000000000000000000000000000000000006001600160a01b03165af1610871611078565b5061079e5760405162461bcd60e51b815260206004820152601160248201527010d491505513d497d611915497d1905253607a1b6044820152606490fd5b5f808084819460018060a01b03165af16108c7611078565b50156108e4575f806108dc81949382946110b7565b935050610833565b60405162461bcd60e51b815260206004820152600d60248201526c11915157d611915497d1905253609a1b6044820152606490fd5b8083029083820414831517156109345761271090049061082d565b634e487b7160e01b5f52601160045260245ffd5b90506020813d602011610982575b8161096360209383610f0b565b8101031261023b57516001600160a01b038116810361023b578261081d565b3d9150610956565b9091506020813d6020116109c2575b816109a660209383610f0b565b8101031261023b575161ffff8116810361023b579060206107f6565b3d9150610999565b6107356002611054565b60405162461bcd60e51b81526020600482015260116024820152701053149150511657d19253905312569151607a1b6044820152606490fd5b60405162461bcd60e51b815260206004820152601460248201527321b0b6b830b4b3b71034b9903737ba1037bb32b960611b6044820152606490fd5b5067ffffffffffffffff81164210156105e5565b3461023b575f36600319011261023b576020600454604051908152f35b3461023b575f36600319011261023b5767ffffffffffffffff600354164210610a0d57610aa5611214565b60ff60035460401c1660048110156101d6576109d45760045460025411801590610d1b57610ad36001611054565b7f41493253ae80c9f89e25283c36f67849365d0515134ce43de1314223cb6f73426020604051838152a17fafa725e7f44cadb687a7043853fa1a7e7b8f0da74ce87ec546e9420f04da8c1e602060ff60035460401c16610b366040518092611047565ba1610b42575b60015f55005b6040516324a9d85360e01b81527f00000000000000000000000000000000000000000000000000000000000000006001600160a01b0316602082600481845afa918215610418575f92610cdb575b506020600491604051928380926361d027b360e01b82525afa908115610418575f91610c99575b50479161ffff1680610c7e57505f905b81610c49575b505f91829150819081907f00000000000000000000000000000000000000000000000000000000000000006001600160a01b03165af1610c0b611078565b50610b3c5760405162461bcd60e51b815260206004820152601160248201527010d491505513d497d611915497d1905253607a1b6044820152606490fd5b5f808084819460018060a01b03165af1610c61611078565b50156108e4575f80610c7681949382946110b7565b935050610bcd565b80830290838204148315171561093457612710900490610bc7565b90506020813d602011610cd3575b81610cb460209383610f0b565b8101031261023b57516001600160a01b038116810361023b5782610bb7565b3d9150610ca7565b9091506020813d602011610d13575b81610cf760209383610f0b565b8101031261023b575161ffff8116810361023b57906020610b90565b3d9150610cea565b610ad36002611054565b3461023b575f36600319011261023b5760025460035490610dba600454610d4a610f41565b90610da460405195869560018060a01b037f0000000000000000000000000000000000000000000000000000000000000000168752602087015267ffffffffffffffff8116604087015260ff606087019160401c16611047565b608084015260e060a084015260e0830190611023565b7f00000000000000000000000000000000000000000000000000000000000000006001600160a01b031660c08301520390f35b3461023b575f36600319011261023b576020600254604051908152f35b3461023b57602036600319011261023b576004356001600160a01b0381169081900361023b575f526005602052602060405f2054604051908152f35b3461023b575f36600319011261023b57602067ffffffffffffffff60035416604051908152f35b3461023b575f36600319011261023b57602060ff60035460401c16610e956040518092611047565bf35b3461023b575f36600319011261023b57610ec6610eb2610f41565b604051918291602083526020830190611023565b0390f35b3461023b575f36600319011261023b577f00000000000000000000000000000000000000000000000000000000000000006001600160a01b03168152602090f35b90601f8019910116810190811067ffffffffffffffff821117610f2d57604052565b634e487b7160e01b5f52604160045260245ffd5b604051905f6001548060011c9160018216918215611019575b602084108314611005578386528592908115610fe65750600114610f87575b610f8592500383610f0b565b565b5060015f90815290917fb10e2d527612073b26eecdfd717e6a320cf44b4afac2b0732d9fcbe2b7fa0cf65b818310610fca575050906020610f8592820101610f79565b6020919350806001915483858901015201910190918492610fb2565b60209250610f8594915060ff191682840152151560051b820101610f79565b634e487b7160e01b5f52602260045260245ffd5b92607f1692610f5a565b805180835260209291819084018484015e5f828201840152601f01601f1916010190565b9060048210156101d65752565b60048110156101d65760ff60401b6003549160401b169060ff60401b191617600355565b3d156110b2573d9067ffffffffffffffff8211610f2d57604051916110a7601f8201601f191660200184610f0b565b82523d5f602084013e565b606090565b9190820391821161093457565b156110cb57565b60405162461bcd60e51b81526020600482015260096024820152684e4f5f504c4544474560b81b6044820152606490fd5b1561110357565b60405162461bcd60e51b815260206004820152601660248201527543616d706169676e206973206e6f742061637469766560501b6044820152606490fd5b1561114857565b60405162461bcd60e51b815260206004820152601060248201526f21b0b6b830b4b3b71034b99037bb32b960811b6044820152606490fd5b9081602091031261023b5751801515810361023b5790565b1561119f57565b60405162461bcd60e51b815260206004820152600e60248201526d119050d513d49657d4105554d15160921b6044820152606490fd5b9190820180921161093457565b60405162461bcd60e51b815260206004820152600a6024820152695553455f504c4544474560b01b6044820152606490fd5b60025f54146112235760025f55565b633ee5aeb560e01b5f5260045ffdfea2646970667358221220685bb44d31e6c700b22edb6ebb28224d59872820f59996412124fb55d1a5457564736f6c634300081e0033a26469706673582212204cb0b0cace4f856dd156e891a3d43d3c57acefbb1ed812b82706f19515eccacb64736f6c634300081e0033","linkReferences":{}},"methodIdentifiers":{"bannedCreators(address)":"0133ea5c","campaigns(uint256)":"141961bc","campaignsLength()":"5f3179c3","createCampaign(uint256,uint64,string)":"5706ae93","feeBps()":"24a9d853","getUserCampaigns(address)":"a1e5084c","owner()":"8da5cb5b","paused()":"5c975abb","renounceOwnership()":"715018a6","setBanned(address,bool)":"88c9bcce","setFeeBps(uint16)":"023b1fc9","setPaused(bool)":"16c38b3c","setTreasury(address)":"f0f44260","transferOwnership(address)":"f2fde38b","treasury()":"61d027b3","userCampaigns(address,uint256)":"19ac74bd"},"id":20}