{"abi":[{"type":"function","name":"getNumber","inputs":[],"outputs":[{"name":"","type":"uint256","internalType":"uint256"}],"stateMutability":"view"},{"type":"function","name":"increment","inputs":[],"outputs":[],"stateMutability":"nonpayable"},{"type":"function","name":"number","inputs":[],"outputs":[{"name":"","type":"uint256","internalType":"uint256"}],"stateMutability":"view"},{"type":"function","name":"setNumber","inputs":[{"name":"newNumber","type":"uint256","internalType":"uint256"}],"outputs":[],"stateMutability":"nonpayable"},{"type":"event","name":"NumberSet","inputs":[{"name":"newNumber","type":"uint256","indexed":false,"internalType":"uint256"}],"anonymous":false}],"bytecode":{"object":"0x60808060405234601557610133908161001a8239f35b5f80fdfe60808060405260043610156011575f80fd5b5f3560e01c9081633fb5c1cb1460bf575080638381f58a146043578063d09de08a1460615763f2c9ecd8146043575f80fd5b34605d575f366003190112605d5760205f54604051908152f35b5f80fd5b34605d575f366003190112605d575f545f19811460ab57602060017f9ec8254969d1974eac8c74afb0c03595b4ffe0a1d7ad8a7f82ed31b9c85425919201805f55604051908152a1005b634e487b7160e01b5f52601160045260245ffd5b34605d576020366003190112605d5760207f9ec8254969d1974eac8c74afb0c03595b4ffe0a1d7ad8a7f82ed31b9c854259191600435805f558152a100fea26469706673582212200580f792e97ca27a24fcd1b54ea27c6cc3bc1f9be3b596297a633917e8de1ca364736f6c634300081e0033","linkReferences":{}},"methodIdentifiers":{"getNumber()":"f2c9ecd8","increment()":"d09de08a","number()":"8381f58a","setNumber(uint256)":"3fb5c1cb"},"id":21}