{"abi":[{"type":"function","name":"getNumber","inputs":[],"outputs":[{"name":"","type":"uint256","internalType":"uint256"}],"stateMutability":"view"},{"type":"function","name":"increment","inputs":[],"outputs":[],"stateMutability":"nonpayable"},{"type":"function","name":"number","inputs":[],"outputs":[{"name":"","type":"uint256","internalType":"uint256"}],"stateMutability":"view"},{"type":"function","name":"setNumber","inputs":[{"name":"newNumber","type":"uint256","internalType":"uint256"}],"outputs":[],"stateMutability":"nonpayable"}],"bytecode":{"object":"0x6080806040523460145760f690816100198239f35b5f80fdfe60808060405260043610156011575f80fd5b5f3560e01c9081633fb5c1cb1460aa5781638381f58a14609357508063d09de08a1460615763f2c9ecd8146043575f80fd5b34605d575f366003190112605d5760205f54604051908152f35b5f80fd5b34605d575f366003190112605d575f545f198114607f576001015f55005b634e487b7160e01b5f52601160045260245ffd5b34605d575f366003190112605d576020905f548152f35b34605d576020366003190112605d576004355f5500fea26469706673582212204f26424a0fe7bc7ac9b65458d5e2b948b4e1ed7e25fbc4105221cb0185511edb64736f6c634300081e0033","linkReferences":{}},"methodIdentifiers":{"getNumber()":"f2c9ecd8","increment()":"d09de08a","number()":"8381f58a","setNumber(uint256)":"3fb5c1cb"},"id":21}